:020000040800F2
:100000000020002021010008450200089D01000891
:10001000B3010008C9010008DF010008000000006A
:10002000000000000000000000000000F5010008D2
:100030004502000800000000030200084502000815
:100040004F0200084F0200084F0200084F0200084C
:100050004F0200084F0200084F0200084F0200083C
:100060004F0200084F0200084F0200084F0200082C
:100070004F0200084F0200084F0200084F0200081C
:100080004F0200084F0200084F0200084F0200080C
:100090004F0200084F0200084F0200084F020008FC
:1000A0004F0200084F0200084F0200084F020008EC
:1000B0004F0200084F0200084F0200084F020008DC
:1000C0004F0200084F0200084F0200084F020008CC
:1000D0004F0200084F0200084F0200084F020008BC
:1000E0004F0200084F0200084F0200084F020008AC
:1000F0004F0200084F0200084F0200084F0200089C
:100100004F0200084F0200084F0200084F0200088B
:100110004F0200084F0200084F0200084F0200087B
:1001200072B6124912480860124913480860134910
:100130001348086013490722120408681043086036
:1001400011481249086048608860C86008614861C9
:100150008861C8610E490F4A881A0F4A40F8042B7B
:100160008842FBD300F0D2FA62B6FEE718ED00E059
:10017000000000001CED00E0000000FF20ED00E0AA
:100180000000FF0024ED00E0FFFFFFFF80E200E041
:100190000020002000020000CDCDCDCD704610F132
:1001A000030F02D1EFF3098101E0EFF3088100F0C2
:1001B00081B8704610F1030F02D1EFF3098101E01D
:1001C000EFF3088100F0AAB8704610F1030F02D1D6
:1001D000EFF3098101E0EFF3088100F0EDB870461C
:1001E00010F1030F02D1EFF3098101E0EFF3088171
:1001F00000F01CB9EFF309800FC800F053F9DFF8E5
:1002000078F072B61D4A1E4810601E49CB68002B5C
:1002100004D0EFF3098020E9F00FD8600A69002AC2
:100220000AD0D068B0E8F00F80F30988CA600020D7
:10023000086162B6DFF840F062B672B60F4A104845
:100240001060EBE7EFF30580103800F071BCEFF3BE
:100250000580103800F08EBC08490B4808607047D4
:10026000C268D208D200403A084B536391635FF0F2
:100270008073D363C2607047FDFFFFFF04ED00E0B1
:10028000000000080C0000200000001015120008FB
:1002900012DF7047033008B505D100F0B2FF044B00
:1002A00000221A6008BDBDE8084000F021BA00BF76
:1002B00028ED00E038B5054613480C4600F04EFA2C
:1002C000124B1B689A0702D51148A1690BE04DF645
:1002D0001273A16931F8022C9A4205BF61690D4879
:1002E0000D4821F0010100F039FAEB1C07D1A36998
:1002F00033F8022C4DF612739A4200D162B62846AA
:10030000BDE83840FFF7C6BF2C4F00082CED00E0D9
:10031000394F00085C4F00088A4F000870B51D4C2B
:10032000064623680D4613F0180F14D01A4800F043
:1003300015FA2368D90601D5184802E01A0702D534
:10034000174800F00BFAA969164800F007FABDE853
:10035000704000F0CDB99B0717D00F4800F0FEF9B0
:1003600023689A0701D5104802E0DB0702D50F4841
:1003700000F0F4F90E4B0F48AA69196800F0EEF985
:100380003046BDE87040FFF785BFBDE87040FFF71D
:1003900091BF00BF28ED00E0A84F0008B54F00084E
:1003A000C54F000840500008D74F0008ED4F000827
:1003B00034ED00E00A50000838B5154D0C462B68A6
:1003C00013F4F85F1FD0134800F0C8F92B68D90464
:1003D00001D5114802E01A0504D51048A16900F0C2
:1003E000BDF90CE013F4C06F01D00D4802E0DB054D
:1003F00005D50C480C4BA269196800F0AFF9BDE8AF
:10040000384000F075B9BDE83840FFF753BF00BF72
:1004100028ED00E025500008315000084C5000083D
:10042000695000089250000838ED00E038B50446E5
:1004300012480D4600F092F9114B1B68980101D546
:1004400010480FE0D90101D50F480BE01A0301D580
:100450000E4807E013F4A02F01D00D4802E09B03E3
:1004600002D50C4800F07AF90B48A96900F076F93A
:100470002046BDE83840FFF70DBF00BFC25000085E
:1004800028ED00E0D0500008E1500008F2500008CC
:10049000075100081D510008405000086FF00A0085
:1004A00000F0A4BE70B50C4611461A46332800F27F
:1004B0001081DFE810F0340039003E0043004800AE
:1004C0004D00520057006000640068006D007A0023
:1004D000760072007F0084008A008F0094009900EB
:1004E0009E00A300A800AD00B200B700BC00C10090
:1004F000C700CC00D100D600DB000E010E010E01BA
:100500000E010E010E010E010E010E010E01E000A2
:10051000E500EA00EF00F400F900060114012046AE
:10052000BDE8704000F080BC2046BDE8704000F09F
:1005300097BD2046BDE8704000F00EBD2046BDE8E6
:10054000704000F01FBD2046BDE8704000F072BD55
:100550002046BDE8704000F049BD2046BDE870402F
:1005600000F084BD00F0ECFC00222146BDE87040A4
:10057000134600F0D3BDBDE8704000F069BEBDE891
:10058000704000F0E1BE2046BDE8704000F002BBC4
:100590002046BDE8704000F02BBBBDE8704001F084
:1005A000ABB8BDE8704001F085B82046BDE87040AA
:1005B00001F07AB82046BDE8704001F0B9B8204695
:1005C000BDE87040D2B201F04DB92046BDE87040A0
:1005D00001F086B92046BDE8704001F0A9B9204677
:1005E000BDE8704001F060B92046BDE8704001F000
:1005F000CABA2046BDE8704001F0CFBA2046BDE837
:10060000704001F0D7BA2046BDE8704001F06ABBE7
:100610002046BDE8704001F097BB2046BDE8704021
:1006200001F0C4BB2046BDE8704001F0F1BB20469C
:10063000BDE8704001F004BC2046BDE87040D2B275
:1006400001F034BC2046BDE8704001F06BBC204690
:10065000BDE8704001F08ABC2046BDE8704001F062
:100660002FBD2046BDE8704001F0E4BD2046BDE846
:10067000704001F007BE2046BDE8704001F073BE37
:100680002046BDE8704001F0BFBE2046BDE8704086
:1006900001F034BE2046BDE8704001F050BE204657
:1006A000BDE8704000F0EEB90D4B0E4A586890421C
:1006B0000FD15C6099600C480C49BDE8704000F0B7
:1006C0004DB8074B20465D689A682B46BDE87040E0
:1006D00018476FF00800BDE8704000F087BD70BD9E
:1006E0000C0000209D04000835540008305100081B
:1006F000054808B500F032F84FF000504FF4007193
:1007000000F03EF8FEE700BF3C5100080E4A4FF0F3
:10071000005310B55A600D4C0D4A00219A602046D6
:100720004FF49C7204F028FB0A4B636000F00EFA51
:1007300000F070F901F014F901F0D0FDBDE81040AF
:10074000054800F075BD00BFA50400080C0000209E
:10075000EC5400089D040008845700080FB407B546
:1007600004A951F8040B054B01915A689B6804F0E9
:1007700097F803B05DF804EB04B070470C0000205C
:100780002DE9F041064600EB01080F4612483146BC
:100790004246FFF7E3FF34464445A4EB060311D07D
:1007A00013F00F0503D10D482146FFF7D7FF0C4882
:1007B00014F8011BFFF7D2FF0F2DEDD10948FFF709
:1007C000CDFFE9E73B0704D0BDE8F0410548FFF75E
:1007D000C5BFBDE8F08100BF4A510008655100085F
:1007E0006E5100087254000801466A464FF00053EB
:1007F0009B6803481B68D0F82001DB68184700BFDE
:100800000C000020024B0146D3F8200100F068B92B
:100810000C0000202DE9F04180460025114E0024F7
:10082000D6F8200100F066F9854218D22846FFF775
:10083000E9FF4FF000539B6834601B680746284669
:10084000DC68FFF7DFFF08300DB96A4602E097E881
:100850000C001A444146A04710B90135DEE7204696
:10086000BDE8F0810C00002038B5054600240C4B93
:10087000D3F8200100F03EF984420BD22046FFF766
:10088000C1FF0268AA4203D243681344AB4204D8B2
:100890000134ECE74FF0FF3038BD204638BD00BFD3
:1008A0000C0000202DE9F8438846064620B9BDE833
:1008B000F8430846FFF7AEBFFFF7D6FF071E02DA80
:1008C0000020BDE8F883FFF79DFF4FF000539B68C1
:1008D00002461B6808305C690FB96B4602E092E87B
:1008E0000A000B4431464246A04700283ED1054647
:1008F0001F4CD4F8200100F0FDF88542E0D2BD4243
:1009000032D0002323602846FFF77CFF4FF00053CE
:100910009B6881461B682846DC68FFF773FF083038
:100920000DB96A4602E099E80C001A444146A04716
:100930000446C8B14FF00055AB6831461B6809F159
:1009400008001B69984731460246204604F03AF9F0
:10095000AB6838461B689D69FFF754FF3146083085
:10096000A8472046BDE8F8830135C1E7BDE8F88314
:100970000C00002070B5054680B1FFF775FF002818
:100980000CDB4FF000539B681B689C69FFF73AFF34
:1009900029462346BDE870400830184770BD000066
:1009A000F8B50D4B4FF000540022256823601A6003
:1009B00007460E46FFF726FFA26803461268083076
:1009C000146A0FB96A4601E00CCB1A443146A047BD
:1009D0004FF000531D60F8BD0C00002038B54FF0FB
:1009E0000054044B2568002223601A60FFF712FFB1
:1009F000256038BD0C00002038B54FF00054044B82
:100A00002568002223601A60FFF7B4FF256038BD17
:100A10000C0000202DE9FF41174F184C01AE304665
:100A2000394601F0D1FD4FF00055C4F82061002394
:100A30002C602360AB68DFF84880DB684146D3F860
:100A400000C0142268460123E047AB684146DB68DA
:100A500068461B699847009B0546C4F8203131461B
:100A60000C22083004F0AEF841F6BC632F606B60D6
:100A700004B0BDE8F08100BF440100200C0000205C
:100A80007451000870B504460E460025124BD3F889
:100A9000200100F02FF8854212D22846FFF7B2FE5F
:100AA00001688C420AD34368A2190B449A4205D8C4
:100AB0006FF00500BDE8704000F098BB0135E5E738
:100AC00072B6064800F020F8214680E85000083051
:100AD00001F07AFD62B670BD0C0000202C010020F0
:100AE0004FF000539B680A46DB6801499B68184732
:100AF000805100084FF000539B680249DB68DB68B7
:100B0000184700BF8051000838B5074B4FF000541C
:100B10000022256823601A60A3680449DB681B690A
:100B20009847256038BD00BF0C00002080510008A8
:100B300008B501460448FFF711FEBDE808406FF014
:100B40000A0000F053BB00BF8C510008054B064A59
:100B500043F8042F054A9342F9D1054B4FF0FF3279
:100B6000DA61704728000020B05100080801002019
:100B70000C00002038B50346054C083354F82330E8
:100B8000E5691A68E06159689047E56138BD00BFC2
:100B90000C00002037282DE9F0418846174602DD79
:100BA0006FF00B0015E0800000F100540C34266A51
:100BB0000E4B9E4202D06FF005000AE072B60C2088
:100BC000FFF70CFF0546206262B630B926626FF06F
:100BD000C900BDE8F04100F009BBC0F800804760E3
:100BE00000F0AEF9A860BDE8F08100BFB051000888
:100BF000800038B500F100540C34236A9D6800F081
:100C00009FF9854207D172B6206AFFF7F5FE62B6FA
:100C1000044B236238BD6FF00C00BDE8384000F093
:100C2000E5BA00BFB051000803681BB90160096054
:100C3000496070474B6003681B680B6003681B6862
:100C4000596003681960704703685A689A4217BF71
:100C50001B680023136003681FBF5A681B685A6033
:100C6000036818BF5B680360704738B505680446C1
:100C70008D4203D1BDE83840FFF7E6BF0160FFF7C2
:100C8000E3FF256038BD0000044B186118B182688D
:100C90004FF000531A60FFF7DFBA00BF0C000020CE
:100CA0000346007A48B15A680A605A68196852685F
:100CB0005A60521A18BF01221A727047084B1A68FC
:100CC00012B90060406008E042601A681268026071
:100CD0001A68126850601B681860014B18607047F2
:100CE0002000002030B5044685B0443000F06AFC96
:100CF00022482146FFF7B9FF214B5D6935B92046EF
:100D0000FFF7DCFF2046FFF7BFFF35E0A269AB69C4
:100D10009A4209D21B48FFF797FF2046FFF7CEFF04
:100D20002046FFF7B1FF2C46164B1A6801921A684D
:100D300002921B68003318BF01238DF80C3001A804
:100D40006946FFF7ADFF98B1009BA1699A6991428E
:100D5000F5D20C4A1268934203D12046FFF7AEFF4A
:100D60000AE01A68636022601A6854601C6003E03D
:100D700004482146FFF758FF05B030BD240000208D
:100D80000C0000202000002037B50446114D124809
:100D90006B699C4205D1FFF757FF6869FFF774FF45
:100DA00002E02146FFF761FF21460C48FFF73CFFB8
:100DB000684600F007FC04F1440069466A4603F007
:100DC000BCFD04F13C0168460A4603F0B0FD03B0E7
:100DD00030BD00BF0C0000202000002024000020B7
:100DE000436910B59B07044613D51C3000F01EFD67
:100DF000636923F0F00203F00303022B626104D065
:100E0000032B06D12046FFF76DFF636923F0020331
:100E1000636110BD08B572B643699B0701D5FFF742
:100E2000DFFF62B608BD0000F8B505460C4672B695
:100E30005820FFF7D3FD206062B60021582203F04E
:100E40009BFF2368002B6BD0EB68D90104D4286882
:100E500004F03EF8B53000E0B420033020F0030683
:100E600072B6686827683044FFF7B8FDB86062B6AC
:100E700020688768002F4BD06A68CD2132443846FD
:100E800003F07AFF226800235361AB689168936195
:100E90006B680B443344D3602268254902F11C007F
:100EA00000F0DAFC6B6820683344036100F060FEF8
:100EB000236898684FF0FF3343610361EB68DA0100
:100EC00002D52B68836108E0B430296803F0A2FFE3
:100ED00023689B6803F1B4029A6123689968081D2E
:100EE000314401F071FB20682969FFF7B9F9114815
:100EF0002168FFF799FEEB68DB0717D52068436987
:100F000043F00103436172B6FFF7ECFE62B6F8BD31
:100F100072B6FFF771FD62B66FF0CA00276001E09C
:100F20006FF0C900BDE8F84003F0A9BCF8BD00BFF0
:100F3000150E00082400002083689869704700009F
:100F4000044AD369002BA3BF083352F823309868B2
:100F5000D06870470C00002008B5C31C022B09D8CC
:100F6000FFF7EEFF836805490548C8229B69FFF734
:100F7000F5FBFEE743690B6008BD00BFEF510008B9
:100F8000BC510008C31C022B10B5044609D8FFF75A
:100F9000D7FF836813491448D0229B69FFF7DEFB13
:100FA000FEE772B611F0010F43690BD013F0030393
:100FB00002D0022B02D012E0FFF794FE636943F0E7
:100FC00001030BE003F00303012B02D0032B02D03B
:100FD00005E0FFF7D9FE636923F00103636162B6A0
:100FE00010BD00BFEF510008BC510008C31C022B0C
:100FF00010B5044609D8FFF7A3FF83680B490C48D6
:10100000EE229B69FFF7AAFBFEE772B683698B426B
:101010000AD04369816103F00303012B04D1FFF778
:10102000B3FE2046FFF75EFE62B610BDEF5100082A
:10103000BC51000808B5C31C022B09D8FFF780FF7C
:10104000836805490548FF229B69FFF787FBFEE798
:1010500083690B6008BD00BFEF510008BC51000858
:1010600010B50446FFF76CFF206010BD421C10B5A0
:10107000044648D0C31C022B0AD8FFF761FF8368DF
:101080002149224840F215129B69FFF767FBFEE7F2
:1010900072B6436903F00303012B07D1FFF774FE17
:1010A0001B4BDA68A24204BF0022DA6063699B0727
:1010B0001CD504F11C0000F0B9FB636903F0F003D8
:1010C000402B09D0502B0BD083B112480E494FF45E
:1010D0009972FFF743FB08E0204600F0A7FC05E00B
:1010E000A06B214600F0DAFD00E0FEE70A48214649
:1010F000FFF7BBFD62B672B6A068FFF77DFC204625
:10110000FFF77AFC62B610BDEF510008BC51000831
:101110000C0000200C52000824000020F8B51F46E7
:10112000C31C022B04460E4615460AD8FFF708FFDB
:101130008368144914484FF4A1729B69FFF70EFBB2
:10114000FEE772B643699B0706D510480D4940F289
:101150004512FFF703FBFEE7FFF716FE626945F055
:10116000020515436561A76362B656B133680BB9D2
:10117000736833B104F11C003146BDE8F84000F05B
:10118000F9BAF8BDEF510008BC5100080C52000834
:1011900008B5C31C022B0AD8FFF7D2FE83680649A4
:1011A00006484FF4A9729B69FFF7D8FAFEE772B6BA
:1011B000FFF716FE62B608BDEF510008BC510008EB
:1011C00008B5C31C022B0AD8FFF7BAFE836805498D
:1011D000054840F25B129B69FFF7C0FAFEE783689F
:1011E000196008BDEF510008BC51000810B5044655
:1011F000FFF7A6FE20B12146BDE81040FFF7E0BF93
:1012000010BD08B5FFF79CFE18B1BDE80840FFF718
:101210002DBF08BD08B5FFF793FE836803489969A1
:10122000FFF79CFABDE80840FFF7EBBF2352000828
:1012300007B5064A00231361D3605361936101A986
:10124000FFF7F2FD03B05DF804FB00BF0C000020C7
:1012500010B5FFF775FE044672B6FFF795FD204600
:10126000FFF740FD62B610BD70B504462C4B4FF041
:10127000005500222E682B601A60AB6880681B68DE
:1012800086B0E2681B6A043001A998472E60A36803
:1012900024489969FFF762FAA1692348FFF75EFACB
:1012A000A068043001F0A7FAA16823690B449842B2
:1012B000014610D3591A1D48194DFFF74FFA1C4823
:1012C0002169FFF74BFA2B685BB11A48FFF746FA22
:1012D00000232B6010E050F8042BB2F1CD3FE6D094
:1012E000E8E715480499029AFFF738FA134803997A
:1012F000059A019BFFF732FAE56B3C22B5FBF2F150
:10130000246C4FF47A7302FB1152B4FBF3F30C48D4
:10131000FFF724FA0B48FFF721FA06B070BD00BFB3
:101320000C0000204E52000858520008625200087B
:10133000685200086D520008855200089352000858
:10134000A2520008725400082DE9F041674890B09D
:10135000FFF704FA6648FFF701FA72B6654B0025FD
:101360001A6803921A6804921B68003318BF01239D
:101370008DF8143003A86946FFF792FC20B100985D
:10138000FFF772FF0135F5E75B4B1A6803921A68A5
:1013900004921B68003318BF01238DF8143003A892
:1013A0006946FFF77DFC044620B10098FFF75CFF1B
:1013B0000135F4E729465148FFF7D0F94C48FFF7CB
:1013C000CDF90BA82146142203F0D6FC264625466B
:1013D0004B4FD7F82001FFF78DFB854242D22846BC
:1013E000FFF710FA804606A92846FFF7D9FA4548C4
:1013F000D8F80010FFF7B2F94348D8F80410FFF707
:10140000ADF93B6833B14148FFF7A8F900233B60D1
:1014100001240AE03E480999079AFFF79FF93D48E1
:1014200008990A9A069BFFF799F93B48FFF796F946
:10143000D8F804300E9A1E44099B013513440E93CC
:101440000C9A079B13440C930D9A089B13440D931D
:101450000B9A069B13440B930F9A0A9B934288BFE7
:101460000F93B5E72D4B2E481968FFF777F92D49F3
:101470000B680A1DB3F1CD3F03D1B2F1202F114605
:10148000F6D12948C1F12021FFF768F91E483146FD
:10149000FFF764F91CB11D48FFF760F90AE01C482A
:1014A0000E990C9AFFF75AF91A480D990F9A0B9B4F
:1014B000FFF754F901A800F085F8019A3C23B2FB2C
:1014C000F3F1029C03FB11224FF47A73B4FBF3F3A4
:1014D0001648FFF743F91048FFF740F90448FFF7B3
:1014E0003DF962B610B0BDE8F08100BFB05200080F
:1014F000FB52000820000020240000204653000872
:101500000C0000205B530008685200086D52000870
:101510007A53000886530008725400082C510008C2
:1015200094530008001E002062520008A2520008D6
:1015300003685A689A4217BF1B6800231360036848
:101540001FBF5A681B685A60036818BF5B68036056
:101550007047000008B50448FFF700F9BDE80840EF
:101560006FF00A00FFF742BEA653000808B5044812
:10157000FFF7F4F8BDE808406FF00A00FFF736BE49
:10158000C753000808B50448FFF7E8F86FF00A00F1
:10159000FFF72CFE002008BDE75300087FB5C369A4
:1015A0000490019390F824306FF002011B0443F083
:1015B00002030293036A01A8039300F03BFA07B009
:1015C0005DF804FB38B5094B0546D3F80021D3F884
:1015D00004410260D3F81021D3F814019047044B62
:1015E0002044984294BF68606B6038BD0C000020B6
:1015F0003F420F001FB50023019372B6284CD4F868
:101600001831002B40D002A8FFF7DCFFD4F81801F6
:1016100002A9083003F085F9002813DBD4F818413B
:10162000002323761F48FFF783FF019B1BB901941A
:1016300064602460E2E71A68636022601A6854609C
:101640001C60DBE7D4F818319A68029B9A421BD1E0
:10165000D4F81031D4F814019847D4F80431184460
:10166000C4F80401D4F80C31D4F814019847D4F824
:101670001831D4F80401DB68D4F81411181AC4F82E
:101680001C01D4F80831984762B6019C34B101A816
:10169000FFF74EFF236960699847F6E704B010BD75
:1016A0000C0000202401002008B572B6FFF78AFF65
:1016B00062B608BD38B572B60D4C0025D4F80031BD
:1016C000D4F814010133C4F80031C4F81C51D4F823
:1016D0000C319847D4F808310648D4F814119847CB
:1016E000C4F8045162B6BDE83840FFF783BF00BFBD
:1016F0000C00002080841E0008B572B60A4B0B480F
:10170000D3F81C11D3F804210A44C3F804210022A1
:10171000C3F81C21D3F81411D3F80821904762B6FE
:10172000BDE80840FFF766BF0C00002080841E0063
:101730000D4B30B50D4AD3F8085195420ED10268D1
:1017400045688068C3F80C51C3F81001C3F808213C
:10175000C3F814110648BDE8304010476FF0080088
:10176000BDE83040FFF742BD0C00002055150008D1
:1017700080841E002DE9F7430D4604466846FFF7B6
:1017800093FF2B6804F10806A3606B686846E3606A
:101790003146324603F0CBF872B6234B1F683D4604
:1017A00017F1000918BF4FF00109B9F1000F23D05C
:1017B000D5F8048005F10800B8EB0709314618BFD9
:1017C0004FF0010903F0ADF8002813DA164B1A6840
:1017D0006560954208D11A68126822601A6812681A
:1017E00054601A68146016E02B6823602B685C60F4
:1017F0002C6011E04546D8E70B4B1A681AB91C60FB
:101800002460646008E062601A68126822601A68E6
:10181000126854601B681C600123237662B6FFF7D0
:10182000E9FE03B0BDE8F08324010020037E70B51B
:10183000054673B1074C2668864203D12046FFF760
:1018400077FE04E020602046FFF772FE266000234A
:101850002B7670BD240100200023016142610376D4
:1018600070470000F8B507460E461546FFF768FBBF
:10187000044672B62820FFF7B1F8386062B630B976
:101880002046BDE8F8406FF0C901FFF799BC054B51
:10189000C46103610023066280F82450406103762E
:1018A000F8BD00BF9D150008421C08B5034611D0C5
:1018B0000333022B0AD8FFF743FBFFF73DFB064932
:1018C0000346D6220548FEF749FFFEE772B6FFF74A
:1018D00093F862B608BD00BF0A540008BC51000866
:1018E00038B504460D46FFF72BFBE31C022B0AD844
:1018F000FFF726FBFFF720FB0B490346E2220B48CC
:10190000FEF72CFFFEE772B662B6237E2BB1BDE870
:1019100038406FF00501FFF753BC20462946BDE86B
:101920003840FFF727BF00BF0A540008BC51000829
:1019300008B5C31C022B0AD8FFF702FBFFF7FCFA1D
:1019400005490346F2220548FEF708FFFEE772B696
:10195000FFF76CFF62B608BD0A540008BC510008CE
:10196000054B064AC3F80821054AC3F80C21054A6D
:10197000C3F81021704700BF0C0000205515000867
:101980006D150008851500088142F8B504460D461E
:1019900017461E460CD16FF01101FFF711FC2846C7
:1019A000FFF7CAFABDE8F84001461F48FEF7D6BE69
:1019B000002140220346FFF7B1FB72B6A268D2F8BD
:1019C0001CE0136A734521D01421594302F1280009
:1019D00000EB010C4158A94201D0A91C0ED1DCF842
:1019E0000410B94201D0781C08D1DCF80810B142CB
:1019F00002D1002B0FDA0BE0B11CFAD0506A591C4F
:101A000081424FF0000338BF0B46DBE74FF0FF3356
:101A1000E5642765666562B6002B04DB2046BDE8F9
:101A2000F840FFF7B5BBF8BD275400084FF0FF336F
:101A3000C3647047F7B505680446EB1C022B0E46DD
:101A40000AD8FFF77DFAFFF777FA434903464222A7
:101A50004248FEF783FEFEE743681A0404D472B6D8
:101A6000EB6CB34216D117E0C3681868C31C022B95
:101A70000AD8FFF765FAFFF75FFA374903464722AE
:101A80003648FEF76BFEFEE7294600F09AFC002878
:101A9000E5D15EE002330BD12B6D6268934201D039
:101AA000013305D16B6DA26893424DD002334BD008
:101AB0000020AB68D3F81CE05F6A0EF10101B94267
:101AC00034BF8C464FF0000C1A6A94451DBF614626
:101AD0007246D9614FF0FF3262B6002A13DB14213F
:101AE0004A436768283399184F60A7688F60E76892
:101AF0002469CF600C619E5058B3284603B0BDE8FE
:101B0000F040FFF745BB6FF00D013046FFF758FB83
:101B10002846FFF711FA01461148FEF71FFEF31C95
:101B200003D11048FEF71AFE06E03046FFF704FA2C
:101B300001460D48FEF712FE2369211D00930B4854
:101B40000EC9FEF70BFEFEE74FF0FF33EB640120FA
:101B5000AFE703B0F0BD00BF39540008BC51000826
:101B6000525400087454000884540008905400082B
:101B7000836800221A62DA6107225A624FF0FF334B
:101B8000C3640365704710B50446FFF7D9F90146F1
:101B90002046BDE81040FFF74DBF70B50D46144616
:101BA0000646FFF7CDF931462A462346BDE8704088
:101BB000FFF7EABE70B50446FFF7C2F905462046B6
:101BC0002946FFF737FF626828462168A36822F09C
:101BD0000042BDE87040FFF7D7BE0368826801335A
:101BE000934228BF002340681B1A5842584170474F
:101BF00003685A689A4217BF1B6800231360036882
:101C00001FBF5A681B685A60036818BF5B6803608F
:101C1000704738B5056804468D4203D1BDE83840A9
:101C2000FFF7E6BF0160FFF7E3FF256038BD70B541
:101C300006460D4633687BB12C684FF0FF33A36036
:101C40002846FFF7D5FFE068FFF7A2FAE0686FF0DB
:101C50000901FFF7B5FAEDE770BD10B50446FFF7CF
:101C6000BCFF80B12269A0681346141C00F1FF304C
:101C700018BF012484B159689B698C1A184418BF95
:101C800001240B46F6E794E80900834282BFA2686C
:101C9000801800F1FF30C01A10BD0000C31C022BD9
:101CA00010B504460AD8FFF74BF9FFF745F90B4981
:101CB000034637220A48FEF751FDFEE7037C012B5D
:101CC00004D0022B07D18068103001E08068143006
:101CD0002146FFF79EFF0023237410BDB554000872
:101CE000BC510008F8B504460E46FFF729F907462F
:101CF00072B62420FEF772FE0546206062B618B95F
:101D000038466FF0C90110E072B63046FEF766FE45
:101D1000E86062B62068C5685DB972B6FEF76CFE11
:101D200062B6384625606FF0CA01BDE8F840FFF79B
:101D300047BA00234FF0FF32436003608660826140
:101D400043610361F8BD000070B505460C46FFF71E
:101D5000F7F86B1C064601D1256070BDEB1C022B09
:101D60000AD8FFF7EDF8FFF7E7F80E4903466E22B1
:101D70000D48FEF7F3FCFEE772B61C20FEF72EFEC0
:101D8000206062B630B1C660236800229D6023687F
:101D90001A7470BD3046BDE870406FF0C901FFF79E
:101DA0000FBA00BFB5540008BC510008431C10B561
:101DB000044627D0C31C022B0AD8FFF7C1F8FFF74F
:101DC000BBF81149034683221048FEF7C7FCFEE723
:101DD000037C012B04D0022B0FD18068103001E06E
:101DE000806814302146FFF714FFE068FFF7D0F950
:101DF000E0686FF00901FFF7E3F972B62046FEF7DD
:101E0000FBFD62B610BD00BFB5540008BC51000810
:101E1000C31C022B10B50C460AD8FFF791F8FFF748
:101E20008BF8054903469C220448FEF797FCFEE721
:101E3000FFF713FF206010BDB5540008BC51000827
:101E400038B5C31C022B0AD8FFF77AF8FFF774F8ED
:101E500014490346A5221448FEF780FCFEE790E8EB
:101E60001800A34212D183684269013B0B601346FC
:101E7000141C18BF01249CB158680D689B69841A12
:101E80002B440B6018BF01240346F4E79C4297BF24
:101E90008268E31A121902F1FF3298BFD31A0B605D
:101EA00038BD00BFB5540008BC510008F0B5C31CD4
:101EB000022B87B004460F4615460AD8FFF740F8B4
:101EC000FFF73AF815490346B7221548FEF746FCD6
:101ED000FEE7FFF735F806462046FFF7BEFEA3698A
:101EE000013313D168B12D0445F0010505906FF061
:101EF000020101A80196029503970494FFF79AFD49
:101F000009E0A661E76184F8205004E030466FF0F4
:101F10000C01FFF755F907B0F0BD00BFB55400083C
:101F2000BC510008C31C022B10B504460AD8FFF7A9
:101F300007F8FFF701F80B490346D4220A48FEF7D9
:101F40000DFCFEE7FEF7FCFFA369984203D14FF0BA
:101F5000FF33A36110BD6FF00C01BDE81040FFF727
:101F60002FB900BFB5540008BC5100082DE9F0415D
:101F7000044686B00E461746FEF7E2FFE31C022B2E
:101F800080460AD8FEF7DCFFFEF7D6FF4949034634
:101F9000E3224948FEF7E2FBFEE7237C2BB14748EA
:101FA0004449E522FEF7DAFBFEE7A368013304D1DA
:101FB0006FF00901FFF704F978E0A761A369002B2E
:101FC0003CD0A2685569002D38D0AA69686993424F
:101FD000314611D302F0F6FDA369AA69A0689B1AE5
:101FE000A361AB6914301E44FFF702FE00232B747B
:101FF000E868FFF7CDF8E1E71A4602F0E3FDA169D2
:10200000AB696A695B1AAB61A3690A441E44002389
:102010006A61A361D2E7A5682846FFF7DEFD88B9AB
:102020002A68A968531C8B4228BF00232B6016F82E
:10203000013BE8688354A369013BA361A369002BBA
:10204000E9D10DE00223666123742B6923BB2C6167
:10205000246064604046002150222346FFF75EF86A
:10206000A468A3695A1C21D007B3019394F82030C7
:1020700020461B0443F001030293E3690494039395
:10208000FFF7EBFD4FF0FF330590A36101A86FF060
:102090000201FFF7CFFC09E063602B691B68236036
:1020A0002B691B685C602B691C60D3E706B0BDE838
:1020B000F08100BFB5540008BC5100080C52000864
:1020C0002DE9F04104460D461646FEF739FFE31CA4
:1020D000022B80460BD8FEF733FFFEF72DFF524947
:1020E000034640F223125148FEF738FBFEE7237CFB
:1020F00033B14F484C494FF49372FEF72FFBFEE784
:10210000A368013305D16FF00901BDE8F041FFF785
:1021100057B82946A661A3690F46002B2BD0A368A8
:1021200058681A68824226D09E68421CB24228BF74
:102130000022DD685A602B5C01F8013BA369013B7A
:10214000A361E8E72E69002E52D0B2693846934267
:10215000716915D302F036FDA369B269A0689B1AB4
:10216000A361B36910301F4400233374FFF740FDAF
:10217000F068FFF70DF8A369A568002BE2D12EE007
:102180001A4602F01FFDA269B3699B1AB361A269E6
:1021900073691744134473610023A361EBE7ABB188
:1021A0002A68A868531C834228BF00232B606369F8
:1021B000E968581C60611B788B54A369013BA361DB
:1021C0002846FFF70AFDA3690028E8D03BB905F1CE
:1021D00010002374FFF70CFDE068FEF7D9FF2C69AF
:1021E00004B32846FFF7F9FC0028E9D0BDE8F081E8
:1021F0000123676123746B691BB96C61246064609F
:1022000008E063606B691B6823606B691B685C6036
:102210006B691C6040462346BDE8F0410021502216
:10222000FEF77CBFBDE8F081B5540008BC51000842
:102230000C52000838B5C31C022B04460BD8FEF71D
:102240007FFEFEF779FE0D4903464FF4AB720C4852
:10225000FEF784FAFEE7436803604FF0FF338361C3
:1022600025694DB1002304F110002B74FFF7C0FC69
:10227000E868FEF78DFFF3E738BD00BFB5540008EE
:10228000BC51000838B5431C044621D0C31C022BA6
:102290000BD8FEF755FEFEF74FFE0E49034640F2FF
:1022A00077120D48FEF75AFAFEE700F110052846AE
:1022B0002946FFF7BCFC284604F11401FFF7B7FCE0
:1022C00072B6E068FEF798FB2046FEF795FB62B613
:1022D00038BD00BFB5540008BC510008064B4FF094
:1022E000FF32C3F82421C3F82821C3F82C21C3F8F6
:1022F0003021C3F8342170470C00002038B5044663
:102300000D46FEF71DFE042C034612DCA00000F172
:1023100000500C30D0F82421511C03D0934204D13A
:102320006A1C02D1C0F8245138BD18466FF00C0168
:1023300001E06FF00B01BDE83840FEF741BF38B552
:1023400004460D46FEF7FCFD042C06DCA00000F15F
:102350000050D0F830312B6038BD6FF00B01BDE874
:102360003840FEF72DBFF8B507460E46FEF7E8FDEC
:10237000054672B61820FEF731FB044662B6C8B1B6
:1023800000230561C560037572B614363046FEF74A
:1023900025FBA060386062B6A3683BB92046FEF713
:1023A0002BFB28466FF0CA01FEF70AFFA3681C60EA
:1023B0005E60F8BD2846BDE8F8406FF0C901FEF741
:1023C000FFBE70B504460E46FEF7BAFD2369834290
:1023D00005D06FF00C01FEF7F3FE002511E0257D1E
:1023E0006DB172B6A068FEF707FB2046FEF704FB4E
:1023F00062B66FF009013046FEF7E2FE01E02661A9
:102400000125284670BD000010B550B30468FEF7E2
:1024100097FDE21C022A0AD8FEF792FDFEF78CFD1A
:10242000104903464C221048FEF798F9FEE7E2688F
:10243000904205D0BDE810406FF00C01FEF7C0BE21
:1024400072B62269012382421CBF2375002362B643
:102450003BB172B6A068FEF7CFFA2046FEF7CCFA81
:1024600062B610BDD1540008BC5100080B6810B50D
:1024700004684068234413604B6803445360536806
:1024800005498B4207D91168A3F574230131116006
:10249000A3F51073F2E710BD3F420F00034AB0FBF3
:1024A000F2F30B6002FB13034B60704740420F00D6
:1024B0004FF47A73B0FBF3F20A6003FB120253434A
:1024C0004B60704740F66202036893429DBF4268CA
:1024D000024800FB03200248704700BF40420F0043
:1024E000805CE97F0368064A93429FBF40684FF4CF
:1024F0007A72B0FBF2F002FB030088BF014870471C
:102500009AC4200090F9FF7F0A6803689A420CD8A9
:1025100008D14A6843689A4207D814BF4FF0FF3089
:10252000002070474FF0FF3070470120704770B5B2
:1025300005460E461446FFF7E7FF002814DD336812
:102540002A6869689A1A736822608B423BBF03F558
:10255000742303F510735B1A5B1A37BF02F1FF3265
:1025600063606360226070BD00236360236070BDA0
:1025700013B50446684602F0ECF9204669466A46FF
:10258000FFF7D5FF6846FFF79DFF02B010BD13B5FA
:102590000446684602F0DDF9204669466A46FFF7C0
:1025A000C6FF6846FFF79EFF02B010BD37B50C4668
:1025B0000546684602F0CDF9284669462246FFF7EF
:1025C000B6FF204603B030BD033121F003010B1DDF
:1025D0008360436000230B600360704731B151F8A2
:1025E000043C6FF00300401A1844704708467047D7
:1025F00010B5002939D00368002223B1994202D9CD
:102600001A461B68F9E78B420BD051F8044C8C42F8
:1026100007D90BB19C4204D84AB152F8044C8C4201
:1026200005D9BDE810406FF0CB0002F028B90B606F
:102630006AB1116083B151F8040C98420BD153F880
:10264000040C41F8040C186808601B6803E0016082
:10265000002BF0D110BD42B152F8040C884202BFE9
:1026600051F8041C136042F8041C10BD836870B557
:1026700053F8046C054616B16FF0CB0007E0CC1898
:1026800004349C4201D3A24205D86FF0C80002F086
:10269000F6F8002070BD43F8044CCE508168FFF777
:1026A000A7FFAC60012070BD2DE9F041CC1C0546B0
:1026B000904624F0030431B18368DC4206D36FF006
:1026C000C80002F0DCF80020BDE8F081022728688D
:1026D0000022E8B150F8046C01190B1DB342A0F1BF
:1026E000040E12D801F10C04B4429FBF0E600168C1
:1026F00040F8043C196098BF0360036812B113608E
:10270000BDE8F0812B60BDE8F08102460068E0E79B
:10271000284621464246FFF7A9FF0028D3D0012FC3
:10272000D1D00127D3E72DE9F74FD41C06469146B7
:102730009B4624F003040D4631B921461A4603B0E6
:10274000BDE8F04FFFF7B0BFA1F1040A51F8047CD7
:10275000002C47D0FFF742FF804602233268002159
:102760008AB1BA420FD80BD152F8040CCAF8000053
:10277000126809B10A6000E03260DAF8007002E025
:1027800011461268ECE7444504D829190431B942CE
:1027900011D91AE0B26801939742F6D13046C8EBDE
:1027A00004015A46FFF762FF0028EED0019B012B7F
:1027B000EBD00123D2E77B1A072B16D92F513046D5
:1027C00045F8041CFFF714FF0FE0304649465A460F
:1027D000FFF76AFF044650B12946424602F0F2F97B
:1027E00030462946FFF704FF01E0284600E0204676
:1027F00003B0BDE8F08F80680430704738B5456895
:102800004DB182683AB1954205D80368934202D827
:1028100052F8044C2CB16FF0CB0002F030F80020DD
:1028200038BD914209D26FF0C800F6E79542F2D860
:1028300055F8041C2C4649B10D46AC42F6D9EAE7DE
:102840009942E8D89342E6D819461B68002BF7D185
:10285000012038BD70B506461546084614220C46C0
:10286000002102F089FA29463046FFF7C7FFB16818
:1028700020B901F10C039D4220D270BD96E80500FD
:102880008A42F6D052F8046C6FF003039B1A82421E
:1028900033440BD120680130206020698342A06856
:1028A00088BF23610344A360106805E062680132B9
:1028B0006260E2681344E3603246E1E76FF00703C9
:1028C0005B1A1D4423680133236023699D42A3687A
:1028D00088BF25611D44A56070BD000070B5044629
:1028E0000D4616460A2C05DD07480A213246A84740
:1028F0000A3CF7E7002C06DD214632462B46BDE8B0
:1029000070400148184770BD3F55000870B5044637
:102910000D4616460A2C05DD07480A213246A8470F
:102920000A3CF7E7002C06DD214632462B46BDE87F
:1029300070400148184770BD2855000838B5034657
:102940000C46154610681946224602F03BF92B68E2
:102950001C442C6038BD024630B50023141A8C424A
:102960000ADA12F8014BA4F13005092D04D80A2522
:1029700005FB0343303BF1E7184630BDF8B5C1B164
:1029800000F10B060024B1FBF2F502FB1511C9B2F0
:10299000092905D9002B14BF37275727394400E0F0
:1029A0003031C9B206F8011D01342946002DEAD1A3
:1029B00002E0302383720124C4F10B01014422465A
:1029C00002F076F92046F8BD42F20E72904238B518
:1029D00003460C4605D9830A934204D99B0A022573
:1029E00002E0002500E00125194620460A220023C6
:1029F000FFF7C4FF35B1054A431CAA5C22544222AA
:102A0000E25402300023235438BD00BF3155000882
:102A10002DE9F04F99460023824690460C461F460A
:102A20001D468BB003931AF80730002B00F0B281DB
:102A3000252B07F1010140F0A7811AF801300E465D
:102A4000252B07D10AEB0500491B4A46C047BD1C90
:102A500001949CE1AF4204D90AEB0500791B4A4678
:102A6000C0474FF0010B1AF806300AEB0600002BA6
:102A700000F098811BF0010F1DD02B2B11D006D830
:102A8000202B11D0232B13D14BF0100B0EE02D2B4C
:102A900004D0302B0CD14BF0200B07E04BF0020B95
:102AA00004E04BF0040B01E04BF0080B0136DAE7D1
:102AB0000BF0FE0BD7E72A2B5F4601D0024604E05D
:102AC0002368751C029304340FE0CAEB020512F868
:102AD000013B303B092BF8D9B54204D9A91BFFF7BC
:102AE0003AFF029001E0002302931AF805302E2BE2
:102AF0001AD1691C1AF801300AEB01002A2B01D007
:102B00000D4603E02668023504340EE01AF805305D
:102B1000303B092B01D80135F8E78D4204D9691AF9
:102B2000FFF719FF064600E001261AF805206B1C86
:102B3000682A03D06C2A08BF1D4602E01D464BF0F0
:102B400040070AEB050304931AF80530692B2DD0D2
:102B50000AD8622B00F09C8001D8582B0DE0632B23
:102B60000DD0642B22D0A6E0732B0FD002D86F2B90
:102B700072D0A0E0752B3FD0782B52D09BE0231D64
:102B80000193236801248DF81B3098E0231D0193E5
:102B900023681846039302F09BF9012E044640F285
:102BA0008E80864280F08B80344688E0B90603D55B
:102BB000029B9E4238BF1E46231D24687A0648BFEA
:102BC00024B2002C01930BDA614207A80A220023E9
:102BD000FFF7D4FE67F07F078346441CFFB264E032
:102BE00062D0214607A80A220023FFF7C7FE17F08C
:102BF0000C0F0446834646E0BB0603D5029B9E426B
:102C000038BF1E462168780604F1040348BF89B224
:102C1000019300293AD007A80A220023FFF7AEFE4D
:102C200041E0B90603D5029A964238BF1646221DE6
:102C3000216801927A0648BF89B239B3A3F15804DA
:102C40006342634107A81022FFF798FEFB06044683
:102C500083462AD5023428E0BB0603D5029B9E4258
:102C600038BF1E462168780604F1040348BF89B2C4
:102C7000019359B107A808220023FFF77FFE0446FD
:102C8000834617F0100F10D001340EE00C460BE015
:102C900020687A0604F1040348BF80B2019310B1A2
:102CA00007A9FFF791FE0446A346B34509D2CBEB33
:102CB0000404344405E001940024A34601E04FF0ED
:102CC000000B07F0020202F0FF0305932AB9029BF2
:102CD0004146181B4A46FFF701FE049B01351A784E
:102CE000692A1CD009D8622A19D001D8582A0DE0C7
:102CF000632A0DD0642A12D03DE0732A0CD002D88A
:102D00006F2A23D037E0752A09D0782A16D032E00E
:102D10000DF11B0001212CE00398214629E03B0620
:102D200001D5234818E0BBF1000F18D0780701D572
:102D3000204811E0390712D51F480DE0BBF1000F04
:102D40000DD0FA060BD51D48022106E0BBF1000F9D
:102D500005D0FB0603D51A4801214A46C047B345B2
:102D600005D2CBEB060041464A46FFF7CFFD594658
:102D700007A84A46C047059B4BB1029B4146181B1A
:102D80004A46FFF7ABFD02E00F46019400E02F46F4
:102D9000019C48E6AF4207D90AEB0500791B4A4679
:102DA000C04701E05F4689E60BB0BDE8F08F00BF89
:102DB0003655000838550008785300083A55000881
:102DC0003D55000807B502AB43F8040D084611460F
:102DD000044AFFF71DFE019B00221A7003B05DF844
:102DE00004FB00BF3D290008014A0023FFF710BE85
:102DF000372E000870B50D4614460646002001F037
:102E00003EFD31462A4623461E20FDF741FA01F0D9
:102E100031FDB0FA80F0400970BD07B502A901F894
:102E2000010D4FF000531B6801221869FFF7E2FF04
:102E300003B05DF804FB03460A464FF000510968F1
:102E400008691946FFF7D6BF38B54FF000531B6825
:102E500004461D6902F03CF8214602462846BDE8BA
:102E60003840FFF7C7BF13B54FF000531B68002071
:102E70005C6901F004FD21460DF1070201231F20CA
:102E8000FDF706FA01F0F6FC9DF8070002B010BD50
:102E900070B505460E460446FFF7E5FF0A28207088
:102EA00005D0631B721E934201DA0134F4E700235C
:102EB0002370284670BD70B5064603FB02F01D4620
:102EC0000C300B6814469847306018B100234560F9
:102ED0000360846070BD10B504468B680068984735
:102EE0000023236010BD00B100687047006808B17E
:102EF00000230360704710B50446006848B182683B
:102F0000036853434A6803F10C019047036820604B
:102F1000436010BD08B560B103689A4205D36FF0F5
:102F20000B0001F0ACFC002008BD836803FB02002D
:102F30000C3008BD38B5044600680D46C8B190E8AD
:102F40000C00934202F1010201D9026009E081689C
:102F50000133594380E80C000C316B68984740B14D
:102F6000206020682946BDE838400268013AFFF732
:102F7000D1BF002038BD0000F8B54FF000539B686A
:102F80000E46DB6812491B69054617469847F0B1A3
:102F900029680B689F4205D36FF00B0001F06FFCAE
:102FA0002868F8BD8A68013B07FB022404F10C0085
:102FB000A41ADB1B0C345A430844214401F078FE68
:102FC000286831463A46BDE8F840FFF7A3BFF8BD90
:102FD00078570008036870B50546D3B11C68A24253
:102FE00005D36FF00B0001F04AFC2B6811E09E68DE
:102FF000013C06FB02F101F10C0031440C31A21A34
:1030000018441944724301F053FE2B681A68013AC0
:103010001A60184670BD10B504320446FFF74BFF26
:1030200018B120466FF07F43636010BDFFF753BFB8
:1030300070B506460D46002430682946FFF753FF59
:10304000844213D2224630682946FFF763FF0268A4
:103050006FF07F43B3EB122F06D03068294622462B
:10306000FFF758FF006870BD0134E5E74FF0FF300F
:1030700070BD70B506460D46120A541C30682946CC
:10308000FFF731FF844213D2224630682946FFF70A
:1030900041FF02686FF07F43B3EB122F06D0306818
:1030A00029462246FFF736FF006870BD0134E5E788
:1030B0004FF0FF3070BD70B5054600680E46FFF753
:1030C00012FF04466A686FF07F439A4207D028686F
:1030D0003146FFF71FFF0268013C120AF3E7204662
:1030E00070BDF8B505460068140A0F461646FFF78E
:1030F000FAFE844202D36FF00B0019E022462868E2
:103100003946FFF707FF02686FF07F43B3EB122FDA
:1031100002D16FF004000BE0224628683946FFF721
:10312000F9FE0268724012F0FF0F05D06FF0070041
:1031300001F0A5FB0020F8BD0120F8BD70B50646E2
:103140000D461446FFF7CDFF28B130682946220A04
:10315000FFF7E0FE043070BDF8B544686FF07F43C0
:103160009C4205460E4615D1FFF7E4FE38B32C68A5
:1031700031462046FFF7B7FE3146421E2046FFF794
:10318000C9FE314607462868FFF7ADFE0138040244
:103190003C6016E022460068FFF7BCFE007831462E
:1031A00040EA04246A682868FFF7B4FE04603146E8
:1031B00028686A68FFF7AEFE43686B6001E04FF075
:1031C000FF342046F8BDF8B505460F461446FFF714
:1031D00088FF88B1260A394632462868FFF79AFEEA
:1031E0006B683946436032466E602868FFF792FE8E
:1031F000013464F0FF040460F8BD0000F0B50C0970
:1032000050F824502E1D40F8246045B91348144E40
:1032100050F82470B5690120B8402843B0611148C6
:1032200001F00F0550F8240001F007018900EF10AC
:103230000F2404FA01F650F827408A4024EA0604D5
:103240002243C16840F827200122AA4021EA020255
:10325000C260C268AB401343C360F0BDDC550008D8
:1032600000100240F855000870B501F00F0505F098
:103270000C0303F1804303F580339C6801F00306DF
:103280000F20B04024EA0000986098680909B14016
:10329000014399600121A940CD430C4B9C682C400F
:1032A0009C60D8682840D860D00742BF986808431F
:1032B0009860920742BFDA680A43DA601A680A43E4
:1032C0001A605A681143596070BD00BF0004014084
:1032D000124B0A0970B553F82250C1F3C00601F031
:1032E000070155F8263089000F248C4023EA040496
:1032F000012303FA01F1214345F8261050F822106A
:10330000043940F8221041B9054C064854F82220EF
:103310008169934021EA0303836170BDF855000879
:10332000DC5500080010024001F00F0101228A4024
:10333000D243074B18681040186059681140596013
:10334000996811409960D9680A40DA60704700BFF7
:10335000000401400021202201F00EBD4B680A4606
:10336000C3F30E03A3F58073032B15D8DFE803F036
:1033700005020D11117AFFF7ABBF1369117A003303
:10338000127B18BF0123FFF739BF117AD268FFF70C
:103390006BBF117AFFF7C8BF6FF0010001F06FBA81
:1033A00007B54FF0FF3302AA42F8043D2F20012158
:1033B0000023FCF76DFF019803B05DF804FB0000EB
:1033C00013B50446032920D8DFE801F0020A1216DB
:1033D000FFF7E6FF002300930D492246032312E086
:1033E000FFF7DEFF002300930949224604230AE089
:1033F000FFF7D6FF012302E0FFF7D2FF00232246AA
:1034000003490093082301F0FEF902B010BD00BF8C
:1034100000010180044B020953F8222000F00F0044
:103420000123834053617047F8550008094B5A68DF
:10343000D20341BFDA6A084802F00F02013248BFE6
:10344000B0FBF2F05B6858BF0448C3F38343023318
:10345000584370470010024000127A0000093D00F6
:10346000124B02281A6822F080721A605A6822F4FD
:1034700070125A60DA6A22F00F02DA62DA6A42F0F7
:103480000102DA625A6842F480125A605A680CBF2C
:1034900042F4803222F480325A601A6842F080721C
:1034A0001A601A689201FCD5704700BF00100240F4
:1034B000074B1A68D0030AD41A6842F480321A60A3
:1034C0004FF4A0621968890301D4013AFAD1704718
:1034D00000100240F8B52E4B0022DE69DA619D69CA
:1034E0009A615F695A6100BF00BF1C465A6822F0AA
:1034F00003025A606268C2F38102002AFAD100BF57
:1035000000BF022807D0052801D0224805E0FFF7B8
:103510008DFF022201E01F480122636823F46051FD
:103520000023DFF874E020FA03FCF44503D90133EB
:10353000052BF6D100E003B1033341EAC3236360F6
:10354000636823F4E0610023DFF850E020FA03FC15
:10355000F44503D90133052BF6D100E003B1033361
:1035600041EA03236360BFF34F8FBFF35F8F00BF58
:1035700000BF6368134363606168054BC1F3810159
:103580009142F9D100BF00BF5F61DE619D61F8BD6E
:103590000010024000127A0000A24A0400512502E5
:1035A000074B5B6803F00C03042B06D0082B02D0FA
:1035B0001BB100207047FFF739BF0248704700BFBA
:1035C0000010024000127A000A4B10B55A68120629
:1035D00009D55B680124C3F3021301339C401F2CFF
:1035E00002DD640000E00124FFF7DAFF90FBF4F055
:1035F00010BD00BF00100240084B10B55A6892047D
:1036000041BF5B680124C3F3C12301334CBF9C401D
:103610000124FFF7D9FF90FBF4F010BD0010024029
:10362000084B10B55A68520541BF5B680124C3F3CB
:10363000012301334CBF9C400124FFF7C5FF90FBE1
:10364000F4F010BD0010024008B5FFF7D5FF044BA1
:103650005B68C3F3813301335B00B0FBF3F008BD5B
:103660000010024008B5042818D8DFE800F003076E
:103670000B0F1300BDE80840FFF792BFBDE80840FC
:10368000FFF7A2BFBDE80840FFF7CABFBDE808408A
:10369000FFF7B2BFBDE80840FFF7D6BF6FF00600E6
:1036A00001F0EDF8002008BD08B5124B0022DA61E8
:1036B0009A615A615A60DA62D96941F08051D961E0
:1036C000996941F0010199610821A3F58833596096
:1036D00009494B6823F480734B60C2620263426302
:1036E000FFF7E6FE0220FFF7BBFEBDE8084005201D
:1036F000FFF7F0BE001002400070004038B54B6884
:103700000446C3F30E03B3F5817F0D4608D040F2A3
:103710000312934209D0B3F5807F40F0818046E0E8
:10372000087AFFF79FFFE86038BD0B690A7A00331B
:10373000C86818BF0123052A72D8DFE802F0031F0A
:103740002271712CC0B204EB800453B1236B5A1C5C
:103750002263002B6AD1364901234A69834013430F
:103760000AE0236B013B2363002B5FD13049012327
:103770004A69834022EA03034B6138BD72B6C0B286
:1037800035E01BB1BDE83840FFF792BE284A136808
:1037900023F4803309E023B1BDE83840C0B2FFF71D
:1037A0005FBE234A136823F08073136038BD0B7A21
:1037B000012B23D014D3042B32D172B600F044FB7A
:1037C0001C4A136943F0040313611B4B1A6842F04F
:1037D00002021A601A6842F004021A6030BF38BD53
:1037E000FFF766FE0220FFF73BFE72B60520FFF7EB
:1037F00071FE204600F078F962B638BD72B603203B
:10380000FFF768FE204600F06FF962B6084B1A68B1
:1038100022F080721A601A6822F480321A6038BD71
:103820006FF00100BDE8384001F029B838BD00BF95
:103830000010024000ED00E00070004000284FEA58
:103840000111AFBF00F16040054B00F00F00C9B29D
:10385000A5BFC9B200F56140195480F80013704744
:1038600014ED00E0CB0B08BF0123B1FBF3F10129FC
:1038700005D9B1F1011F28BF4FF4803100E00221CA
:10388000044A013B52F8202001399BB289B21385CA
:1038900091857047145600084FF08042138D006ADE
:1038A0009BB2013393FBF0F0928C92B202FB0000CA
:1038B00070474FF08042138A23F001031B041B0C56
:1038C000138201F05FB800002DE9F0410F4686B089
:1038D000104D012401A9064602950394FFF70EFF3F
:1038E000102FDDF810802A4606D80B4BBC40234031
:1038F00013B10295032301E002920223304601A98D
:103900000393FFF7FBFE0498804518BF400006B004
:10391000BDE8F0810201028081C701002A4B30B569
:1039200053F82140294B53F821500123AB4025681F
:103930002B432360264B950753F821301C88A4B2F3
:1039400044F004041C8041BF1C88A4B244F0080465
:103950001C8012F004051FBF9C89A4B244F001042E
:103960009C81D40341BF9C89A4B244F480749C819F
:10397000D40741BF1C89A4B244F480441C8109B11E
:10398000092903D1436A5C1C446206E0072901D07F
:103990000C2903D1836A5C1C84629BB995B10D4BE1
:1039A00053F82130012158B203F01F0301FA03F349
:1039B0000949440941F82430C2F30721BDE83040E9
:1039C000FFF73CBF30BD00BF585600089C560008AA
:1039D00014560008E856000800E100E0194B53F8BF
:1039E0002120138823F001031B041B0C138009B151
:1039F000092903D1436A013B436206E0072901D04C
:103A00000C2903D1836A013B83626BB90E4B012001
:103A100053F8212053B202F01F0200FA02F25B09B0
:103A20000A48203340F82320094B53F82100094B62
:103A300053F82120012303FA02F2036823EA020368
:103A40000360704714560008E856000800E100E0E3
:103A5000585600089C56000838B50D461C464AB119
:103A6000012A0DD1FFF730FF0E49B0FBF1F12846D6
:103A7000614307E0FFF728FFB0FBF4F1284601E0BF
:103A800008461946FFF7EEFE074B53F825200023A2
:103A900093840123938213889BB243F00103138024
:103AA00038BD00BF40420F00145600080B6A0222C6
:103AB000434308460121FFF7CFBF0000074B53F8EF
:103AC0002020138823F001031B041B0C1380138A8E
:103AD00023F001031B041B0C1382704714560008CB
:103AE0000120FFF7EBBF000010B501210446FFF7EE
:103AF000EBFE024BB0FBF3F0206210BD40420F0022
:103B00001FB50446002383624362104A23460A20FD
:103B10001C21FCF7BDFB20460121FFF7D5FE0C4B15
:103B200040F60652B0FBF3F0012120622046FFF779
:103B3000F5FE084B01A80193074B21460293074B62
:103B4000039300F00CFF04B010BD00BFB3380008B1
:103B500040420F00AD3A0008E13A000899380008E9
:103B60000B46097AF0B5102902D96FF0060086E0FD
:103B70005A68C2F30E02B2F5807F15D007D8082A22
:103B80000DD0092A79D1BDE8F040FFF727BF40F2F8
:103B9000011082420ED0B2F5817F10D06DE0DA685C
:103BA000BDE8F040FFF7BABE1A7BBDE8F0401B69E4
:103BB000FFF752BF0846BDE8F040FFF77FBFDC6863
:103BC0001869314BE2B253F821309500198C012A63
:103BD0008EB24FF00F0101FA05F126EA0101C4F39C
:103BE0000724198408DC198BD7008EB2FF21B94055
:103BF00026EA0101198308E0998B971E8EB2FF0017
:103C0000FF21B94026EA01019983002C3BD0611EB7
:103C1000C9B203299BBF1D4C1D4E0021645C8CBFA3
:103C20000C46715C032A10D8DFE802F00205080B8D
:103C300080B298860BE080B2188708E080B298873F
:103C40000CE080B2A3F8400008E0012A06DC188BE3
:103C5000D20094400443A4B21C8306E0023A988B3D
:103C6000D20094400443A4B29C83188C41F001021A
:103C7000AA40024392B21A84F0BD6FF00100BDE881
:103C8000F04000F0FCBDF0BD14560008E0560008FE
:103C9000E4560008044A93889B06FBD593889BB2A0
:103CA00043F010039380704700280040054A938832
:103CB00023F010031B041B0C938093889B06FCD5F8
:103CC000704700BF00280040034B9A889206FBD53E
:103CD00000229A8000F04ABE0028004008B5244B1C
:103CE0002449DA6942F00062DA610A6842F48072BB
:103CF0000A601A6AEAB91A6A42F001021A62196A7B
:103D00001B4A8907FBD5136A43F480731362136A55
:103D100043F400431362FFF7BDFF47F6FF71164BF4
:103D200000221A8199811A839A831A849A84FFF750
:103D3000BDFF114B9A8802F0080292B29A809A88CD
:103D40001007FCD599880C4A8906FBD513880A20F0
:103D50009BB243F0010313800321084A0023FCF7C0
:103D600097FA074B08221A60D02283F8032308BD74
:103D7000001002400070004000280040C93C0008CC
:103D800000E100E00A4B0B491A8B9B8B10B59BB2EC
:103D900043EA0242B2FBF1F301FB13224FF47A71C2
:103DA0004A4303F5332303F66E134260036010BDEC
:103DB000002800408051010010B50446FFF76AFF5B
:103DC00023680D4A9342C4BFA3F533230B496268AD
:103DD000C4BFA3F66E135943BDE810404FF47A7385
:103DE000B2FBF3F3D8BF00210B44054A190C9BB278
:103DF00011839383FFF75ABF6D390B008051010087
:103E000000280040436813B5C3F30E03B3F5807F69
:103E100004460BD040F2011293420FD18368009305
:103E2000C36868460193FFF7C7FF0BE06846FFF7DA
:103E3000A9FF009BA360019BE36003E06FF001001A
:103E400000F01DFD02B010BD034B9A889206FBD511
:103E500000221A80704700BF0028004010B50446B9
:103E600086B001A800F097FCBDF80A30C3F30E033A
:103E7000013B052B1CD8DFE803F008030D121B16CD
:103E8000204601A9FFF73AFC16E0204601A9FFF7FA
:103E900065FA11E0204601A9FFF762FE0CE001A8D7
:103EA000FFF7B0FF08E0204601A900F02DFA03E07B
:103EB0006FF0010000F0E3FC01A800F053FCD0E734
:103EC00000B593B000F0CBFC0121024600232E2068
:103ED000FCF7DEF901A8FFF7E7FB01A8FFF710FEEA
:103EE00001A8FFF737FAFFF7F9FE01A800F0AEFBD3
:103EF00001A8FFF7B3FF0000164BD2B253F82230EF
:103F000030B503F01F0443F3C403012523F06043DD
:103F1000A54023F00303104C03F1604354F8222022
:103F200003F56143C3F8805094890144A4B244F07E
:103F300008049481884206D014882406FCD510F821
:103F4000014B9480F6E7918989B241F0400191815B
:103F50001D6030BD545700086C5700082DE9F04132
:103F6000252886B00F4606D0262806D0272814BF5D
:103F70000325022502E0002500E001253C4B53F813
:103F800025402688A389B6B21A062CD533062AD531
:103F900005F10E0357F82330188A20B3D9894A1C3B
:103FA000194492B2897C8242DA81A18026D34FF0F3
:103FB0000008A3F81080A3F80E8000F065FC2D4BDC
:103FC000019001A802930395CDF8148000F0BEFB88
:103FD000A38923F080031B041B0CA381A3899BB23C
:103FE00043F0400309E0A389580607D5710605D5BB
:103FF000A38923F048031B041B0CA381320726D09E
:10400000330706D505F10E0357F823304FF6F27249
:104010001CE0A388B0079BB2009306D505F10E0300
:1040200057F823304FF6D36210E0F10706D505F1BB
:104030000E0357F823304FF6CD6207E0720706D51E
:104040004FF6CE6205F10E0357F823301A80B306FF
:104050000BD5A3889BB2059300F016FC064B01908C
:1040600001A80293039500F071FB06B0BDE8F08152
:104070006C570008050106000601060000220146F3
:1040800013461920FCF704B90022014613462120EB
:10409000FCF7FEB838B50C460546002000F0EFFBF3
:1040A0002946224606231C20FCF7F2F800F0E2FB2A
:1040B000B0FA80F0400938BD2DE9F34700EB8104E8
:1040C000A56B80460F46924615B16FF0050007E0DC
:1040D000382000F000FC0646A06320B96FF0C8004D
:1040E00000F0CDFBBBE04FF0FF331AF0020F05806C
:1040F000436083604362836285810582C58121D0EC
:104100000DF1080949F8045D494620222B46172085
:10411000FCF7BEF8019B7360A66B71684A1C01D165
:10412000304647E018204A462B460195FCF7B0F888
:10413000019BB360A36B9A685868013237D0394647
:10414000FFF7A8FF1AF0010642D000250DF108097B
:1041500049F8045D49462B4617202022D4F838A0A0
:10416000FCF796F8019BCAF82430D4F838A0DAF8A6
:1041700024104B1C02D1DAF8080014E02B4618205A
:104180004A460195FCF784F8019BCAF82830D4F818
:1041900038A0DAF82830013310D1DAF82400FFF71C
:1041A00073FFA36B9868FFF769FFA36B5868FFF76D
:1041B0006BFFA06B00F0ACFBA56350E02B461B200F
:1041C000DAF824104A46FCF763F8019BAAF82C3071
:1041D000244B254A0FB1052F07D152F827009969C2
:1041E000012282400A439A6106E052F82700D96909
:1041F000012282400A43DA611C4B53F8272093893D
:104200009BB243F40053938126B193899BB243F050
:1042100024039381164B0A2053F82740154A214660
:104220004346FCF735F8E1B24BB201F01F00012222
:10423000002B02FA00F210484FEA5314ACBF03F10E
:1042400060430E4B40F82420B9BF01F00F01D0228B
:1042500003F56143D022B4BF5A5483F8002302B05F
:10426000BDE8F08700100240605700086C57000856
:10427000545700085D3F000800E100E014ED00E045
:104280002DE9F3410E4622B101F10E0350F823301F
:104290009A8100EB8605AC6BA38933B91A2061685B
:1042A00001AAFBF7F5FF019BA381AF6BBC890CB39F
:1042B000102CD7F8088028BF1024002000F0DFFA67
:1042C0001F20414607F112022346FBF7E1FF00F0F1
:1042D000D1FA98B9AB6BA4B29A891C82141BD8810D
:1042E0009C81084B53F8262093899BB243F08803A6
:1042F000938103E078683146FFF7CCFE02B0BDE859
:10430000F08100BF6C57000870B50D7A88B0022D9F
:1043100004460E4602D96FF0060085E14B68C3F3F0
:104320000E030B2B00F025810FD8082B2BD006D8BD
:10433000012B00F04E81062B00F0F68072E1092B74
:1043400026D00A2B00F01B816CE140F2031293424D
:1043500000F02F81B3F5827F07D2B3F5807F6DD057
:10436000B3F5817F00F019815CE140F205129342C0
:1043700000F02F81B3F5827F40F22481B3F5837F73
:1043800000F02D814EE12946F268FFF795FE4DE1E0
:1043900000EB8504A36B002B55D0A54B012253F8ED
:1043A0002510A44E01F01F004BB282405B09A248C9
:1043B000203340F82320002213460B20FBF768FF30
:1043C000A26B536A01330ED056F82510906A8B8980
:1043D00023F024031B041B0C8B81FFF74FFEA36B00
:1043E000586AFFF751FEA36B5A68013206D09868ED
:1043F000FFF744FEA36B5868FFF746FE56F82520EA
:104400008E48938923F400531B041B0C93810123D2
:104410008B4A35B900689169834021EA03039361AF
:1044200006E050F82500D169834021EA0303D361F7
:10443000A06B00F06DFA0023A363F7E005F10E0313
:1044400050F8233013B96FF00300EDE0084601A9DE
:1044500000F0DCFA774B53F82560B38923F400535E
:104460001B041B0CB3819DF80830082B08D19DF864
:1044700009304E2B04D0B3899BB243F4805304E03F
:10448000B38923F480531B041B0CB3819DF80920CE
:10449000B3894E2A0DD09BB243F48063B3814F2A77
:1044A000B38903D19BB243F4007306E023F4007395
:1044B00001E023F480631B041B0CB3819DF80A30D8
:1044C000012B0CBF00234FF4005333820023B3822F
:1044D0005C4B04930DB9032300E0022303A920469B
:1044E0000593FFF70BF9069A192303FB02F1019AD2
:1044F00064239200B1FBF2F2B2FBF3F103FB112251
:10450000D20019323223B2FBF3F343EA01139BB218
:104510003381B3899BB243F40453B381B38A9BB212
:1045200043F00103B38281E000EB8504A36B002B11
:1045300089D059684A1C11D0002213462020FBF76D
:10454000A7FEA36B29465868FFF7A4FDA26B0023C2
:10455000938172B6A26B1382D38162B6A36B596A40
:104560004B1C04D0002220201346FBF791FEA36BC6
:1045700025E00E3550F825302BB15B680BE00E3589
:1045800050F8253033B96FF0030000F078F94FF0A0
:10459000FF3300E05B6AF36048E00E3550F82540D9
:1045A00024B96FF0030000F06AF900E02488F46099
:1045B0003CE00E3550F82530002B3FF444AF00228C
:1045C0001A8033E0312020492A460023FBF760FEA1
:1045D0002CE0204629463269FFF752FE26E00B699F
:1045E00000EB8504A56B8DF80430AB8D33B91B202F
:1045F000696A03AAFBF74CFE039BAB85A36B9A8DFC
:10460000A2B19D6A002000F03AF901AA01231E2000
:104610002946FBF73DFE00F02DF9A26B938D013B7F
:10462000938503E06FF0010000F029F908B070BD38
:10463000545700086C57000800E100E0605700087C
:104640000010024002010280F93E0008002383634B
:10465000C363036470474FF00053F0B51C68D4F88F
:104660001CE0236A73451BD014255D4304F1280622
:1046700077197559854201D0851C09D17D688D4215
:1046800001D04E1C04D1BD6895420CD0951C0AD0B7
:10469000666A5D1CB5424FF0000338BF2B46E1E768
:1046A0004FF0FF30F0BD1846F0BD2DE9F041044653
:1046B0000E4686B04FF00058D8F8001014270B6A49
:1046C0009C422FD007FB04F5283129443A4601A823
:1046D00000F078FAD8F80030002C03F12801D7BF99
:1046E0005B6AA5F114037B43143B68181422194438
:1046F00000F068FA4FF000531A68002CDEBF556ACC
:1047000014235D4302F12800143D284401A914221A
:1047100000F058FA002CDEBF4FF000531B685C6AB3
:10472000013CC7E707FB04113A463046283100F048
:1047300049FAD8F800203046136A516A01338B4297
:1047400028BF0023136206B0BDE8F08110B54FF01A
:1047500000535C6800220146A446BDE810401420C6
:1047600013466047436810B5002B044612DA23F065
:104770000043436000F07EF820B101280AD000F029
:1047800079F8206100222146BDE81040142013462C
:10479000FBF77EBD10BD10B50446002000F06FF899
:1047A0004FF000531B68DA691B6A9A4207D16FF019
:1047B000010115204FF0FF320B46FBF769FD4FF06A
:1047C00000531B682146186AFFF76FFF6368B3F157
:1047D000004F03D12046FFF7C5FFDEE710BD10B53F
:1047E00004460022214613461620FBF751FD94E8AB
:1047F0000300A26821F00041FFF72DFF2146BDE82C
:104800001040FFF752BF7FB50493089B019001A8A9
:10481000029103920593FFF7E2FF07B05DF804FBF6
:104820007FB50493089B019001A805930291039220
:10483000FFF7D5FF049B013302D1059800F01FF864
:10484000049807B05DF804FB07B501460020034655
:1048500001AAFBF71DFD019803B05DF804FB07B545
:104860000022012001A91346FBF712FD019803B0B5
:104870005DF804FB4FF000531B68186870474FF059
:1048800000531B681860704713B500224FF00053A7
:104890005C68012001A91346A047019802B010BD31
:1048A00010B54FF00054A46864682468A446BDE8BD
:1048B000104060470FB407B504A951F8040B4FF03E
:1048C000005301919B685B685B68984703B05DF893
:1048D00004EB04B0704710B501466A464FF0005330
:1048E000986804681868E3680430BDE81040184709
:1048F00030B50A4605466B464FF00051886804689B
:10490000086864692946A446BDE830400430604721
:104910004FF000539A680146126818689369043092
:1049200018474FF000539B689B681B6818474FF06F
:1049300000539B689B685B6818474FF000539B6867
:104940009B689B6818474FF000539B689B681B69E6
:1049500018470022014613460C20FBF799BC03467A
:104960000A460F2019460023FBF792BC10B54FF002
:1049700000535C680021A446BDE810400D200A46A3
:104980000B46604710B54FF000535C680021A44609
:10499000BDE810400E200A460B46604707B50B469F
:1049A000024601A91020FBF773FC019803B05DF8E3
:1049B00004FB03460A46112019460023FBF768BC96
:1049C00013B5044608466946FFF7BDFF2046694611
:1049D000FFF7EFFF02B010BD07B54FF0FF3302AA9B
:1049E00042F8043D2F2001210023FBF751FC0198E0
:1049F00003B05DF804FB0368CB60437902791B02C6
:104A000043EA0243827913430B617047C3680B602A
:104A1000438A0B7103691B0A4B7103698B717047E1
:104A200013B50446FFF7D8FF00230093024922463E
:104A3000FFF7E9FE02B010BD0401068037B5054658
:104A40000024FFF7C9FF2A46234600940549FFF7D3
:104A5000E7FE2146024623462E2003B0BDE8304043
:104A6000FBF716BC0B00068037B50C460546FFF772
:104A7000B3FF0023009305492A462346FFF7D0FEE3
:104A8000013018BF012003B030BD00BF0800068010
:104A900010B5044686B0084601A9FFF7ACFF054BE8
:104AA00003940293FFF798FF019001A8FFF797FE88
:104AB00006B010BD00010680F0B53E4889B0FFF792
:104AC000C3FE00211E20FEF77BFC4FF0FF3708AD30
:104AD0001E20FEF79FFC45F8147D00242F200121A5
:104AE0002A460023FBF7D4FB09220B230398324903
:104AF0000094FFF788FE02212046FFF7B5FF4FF430
:104B0000E133039308238DF810304E2329468DF8A6
:104B10001130204601238DF81230FFF7B9FF2046EF
:104B2000FFF77EFF08AE2046FFF788FF46F8187DA6
:104B300021462F2032462346FBF7AAFB0299B942B1
:104B40000AD04FF000531F681820234632460294C3
:104B5000FBF79EFB029B3B611D210020FFF71EFF20
:104B60004FF47A710446FFF72BFF1448FFF7A2FEBB
:104B70002846FFF710FEBDF81230C3F30E03103BBA
:104B80000D2B0ED801229A4042F24133134043B11B
:104B90000B48FFF78FFE20464FF47A71FFF710FFA6
:104BA00003E06FF00100FFF76AFE2846FFF7DAFD29
:104BB000DEE700BF2C57000800010180985700086D
:104BC000A2570008844641EA000313F0030349D1C9
:104BD000403A23D30B6803604B6843608B68836063
:104BE000CB68C3600B6903614B6943618B69836167
:104BF000CB69C3610B6A03624B6A43628B6A83624F
:104C0000CB6AC3620B6B03634B6B43638B6B836336
:104C1000CB6BC36340304031403ADBD230320BD3F0
:104C20000B6803604B6843608B688360CB68C3602C
:104C300010301031103AF3D20C3205D351F8043B46
:104C400040F8043B043AF9D2043208D0D2071CBF22
:104C500011F8013B00F8013B01D30B88038060464B
:104C6000704700BF082A13D38B07B1D010F003039D
:104C7000AED0C3F10403D21ADB071CBF11F8013B0D
:104C800000F8013BA4D331F8023B20F8023B9FE738
:104C9000043AD9D3013A11F8013B00F8013BF9D2AB
:104CA0000B7803704B7843708B7883706046704745
:104CB0008842F0B50DD98B1898420AD28118002A83
:104CC00054D09A1A13F8014D934201F8014DF9D1CD
:104CD000F0BD0F2A48D940EA01039B0747D115468A
:104CE00000F1100401F1100353F8106C103D44F86A
:104CF000106C53F80C6C0F2D44F80C6C53F8086CC6
:104D000004F1100444F8186C53F8046C03F1100318
:104D100044F8146CE8D8A2F1100323F00F0302F05A
:104D20000F0E1033BEF1030F1944034421D90E4670
:104D300074461D1F56F8047B043C032C45F8047F81
:104D4000F8D8AEF1040424F00304043423442144CD
:104D500002F0030252B1013B0A4411F8014B9142A7
:104D600003F8014FF9D1F0BD0346F3E7F0BD034668
:104D7000F1E77246EEE700BF70B4840746D0541ED8
:104D8000002A41D0CDB2034602E0621EE4B31446CD
:104D900003F8015B9A07F8D1032C2ED9CDB245EA6E
:104DA00005250F2C45EA054519D9264603F11002C1
:104DB000103E0F2E42F8105C42F80C5C42F8085C82
:104DC00042F8045C02F11002F2D8A4F1100222F0C1
:104DD0000F0204F00F041032032C13440DD91E46A9
:104DE0002246043A032A46F8045BFAD8221F22F02E
:104DF00003020432134404F003042CB1C9B21C446E
:104E000003F8011BA342FBD170BC70471446034654
:104E1000C2E700BF80EA0102844612F0030F4FD1BF
:104E200011F0030F32D14DF8044D11F0040F51F879
:104E3000043B0BD0A3F101329A4312F0803F04BF30
:104E40004CF8043B51F8043B16D100BF51F8044B19
:104E5000A3F101329A4312F0803FA4F101320BD149
:104E60004CF8043BA24312F0803F04BF51F8043BCE
:104E70004CF8044BEAD023460CF8013B13F0FF0F2B
:104E80004FEA3323F8D15DF8044B704711F0010F5E
:104E900006D011F8012B0CF8012B002A08BF70472F
:104EA00011F0020FBFD031F8022B12F0FF0F16BF26
:104EB0002CF8022B8CF8002012F47F4FB3D17047EE
:104EC00011F8012B0CF8012B002AF9D1704700BF13
:104ED00020F0030110F00300C0F1000051F8043B82
:104EE00000F1040C4FEACC0C6FF000021CBF22FA58
:104EF0000CF213434FF0010C4CEA0C2C4CEA0C4C16
:104F0000A3EB0C0222EA030212EACC1204BF51F80E
:104F1000043B0430F4D0C2F1000102EA0102B2FA0B
:104F200082F2C2F11F0200EBD200704748415244A6
:104F3000204641554C543A2000566563746F7220E8
:104F40007461626C652072656164206661756C7461
:104F50002061742025232E3038780A0053595320BD
:104F600063616C6C207768696C6520646973616249
:104F70006C656420696E74657272757074732061FB
:104F8000742025232E3038780A0047656E657261DB
:104F90006C2068617264206661756C742061742095
:104FA00025232E3038780A004D454D204D414E4185
:104FB00047453A2000537461636B696E67206661F0
:104FC000696C656400556E737461636B696E67200C
:104FD0006661696C65640044617461206163636546
:104FE00073732076696F6C6174696F6E00496E73BC
:104FF0007472756374696F6E206163636573732087
:1050000076696F6C6174696F6E002061742025236E
:105010002E3038780A2C2063616C6C657220252351
:105020002E30387800425553204641554C543A2092
:1050300000537461636B696E67206661696C6564B7
:105040002061742025232E3038780A00556E737441
:1050500061636B696E67206661696C656420617469
:105060002025232E3038780A00446174612062754F
:1050700073206572726F722061742025232E303880
:10508000782C2063616C6C65722025232E30387873
:105090000A00496E737472756374696F6E2062756D
:1050A00073206572726F722061742025232E303850
:1050B000782C2063616C6C65722025232E30387843
:1050C0000A005553414745204641554C543A20006B
:1050D0004469766973696F6E206279207A65726FB0
:1050E00000556E616C69676E65642061636365730A
:1050F00073004E6F20636F70726F636573736F72AE
:1051000020666F756E6400556E646566696E6564D1
:1051100020696E737472756374696F6E00496E7680
:10512000616C69642073746174650000305100081B
:105130005245784F5320302E342E35004B65726E19
:10514000656C2070616E69630A006D656D6F7279C0
:105150002064756D70203078253038782D307825B2
:105160003038780A003078253038783A20002530F9
:1051700032582000E907000800000000000000008D
:1051800015080008A5080008750900085761726E27
:10519000696E673A2069727120766563746F722058
:1051A000256420737475622063616C6C65640A0009
:1051B000310B00080000000000000000494E56417D
:1051C0004C49442048414E444C452061742025738D
:1051D0002C206C696E652025642C2063616C6C65E5
:1051E000722070726F636573733A2025730A002E04
:1051F0002F2E2E2F7265786F732F6B65726E656C14
:105200002F6B70726F636573732E63004153534548
:1052100052542061742025732C206C696E65202502
:10522000640A005761726E696E673A2061626E6F40
:10523000726D616C2070726F636573732074657238
:105240006D696E6174696F6E3A2025730A00252DB1
:1052500032302E323073200025303364202020205D
:1052600020002534622020002534622000202020E8
:10527000202021212144414D414745442121212025
:105280002020202000202533622825303264292068
:105290002020002533622F253362282530326429EF
:1052A00020002533643A253032642E2530336400E3
:1052B0000A202020206E616D6520202020202020E3
:1052C000202020207072696F7269747920207374B5
:1052D00061636B202073697A652020207573656493
:1052E000202020202020206672656520202020209C
:1052F000202020757074696D650A002D2D2D2D2DCF
:105300002D2D2D2D2D2D2D2D2D2D2D2D2D2D2D2DCD
:105310002D2D2D2D2D2D2D2D2D2D2D2D2D2D2D2DBD
:105320002D2D2D2D2D2D2D2D2D2D2D2D2D2D2D2DAD
:105330002D2D2D2D2D2D2D2D2D2D2D2D2D2D2D2D9D
:105340002D2D2D2D0A00746F74616C202564207042
:10535000726F636573736573730A00252330385861
:10536000202020202020202020202020202020203D
:1053700020202020202020202000253362282530D6
:105380003264292020002533622F253362282530FE
:1053900032642900252D32302E3230732020202017
:1053A0002020202020005761726E696E673A2048E5
:1053B0005045542073746172742073747562206355
:1053C000616C6C65640A005761726E696E673A20A1
:1053D000485045542073746F702073747562206355
:1053E000616C6C65640A005761726E696E673A2081
:1053F0004850455420656C61707365642073747502
:10540000622063616C6C65640A002E2F2E2E2F7251
:1054100065786F732F6B65726E656C2F6B73797324
:1054200074696D652E630049504320646561646C46
:105430006F636B3A2025730A002E2F2E2E2F726574
:10544000786F732F6B65726E656C2F6B6970632E4E
:1054500063004572726F723A2072656365697665A2
:105460007220257320495043206F766572666C6FF9
:1054700077210A0053656E6465723A206B65726E1F
:10548000656C0A0053656E6465723A2025730A00E4
:10549000636D643A202523582C2070313A2025234F
:1054A000582C2070323A202523582C2070333A2073
:1054B0002523580A002E2F2E2E2F7265786F732FFA
:1054C0006B65726E656C2F6B73747265616D2E63A4
:1054D000002E2F2E2E2F7265786F732F6B65726ED4
:1054E000656C2F6B696F2E63000000004C5500083F
:1054F000705500080055000894550008B85500087C
:10550000092500086D2400082F2500089D240008A7
:10551000B1240008C5240008E5240008AD250008D2
:105520008F250008712500083030303030303030A1
:1055300030304B4D47002D002B003078004F0020BD
:1055400020202020202020202000000057290008B3
:105550007D290008C9250008A9260008DD250008C6
:1055600027270008F1250008FD2700085528000816
:10557000112A0008E92D0008C52D00085729000848
:105580007D290008492E00081B2E0008672E000800
:10559000912E0008B72E0008D72E0008152F0008FE
:1055A000E72E0008352F0008792F0008ED2E00089F
:1055B000D52F0008F72E0008173000082D300008FE
:1055C00059310008E3300008C73100083D310008B8
:1055D0003130000873300008B730000802000000C6
:1055E00003000000040000000500000006000000A9
:1055F000070000000800000000080140000C014006
:10560000001001400014014000180140001C01403E
:1056100000200140002C0140000000400004004038
:1056200000080040000C0040001000400014004042
:1056300000340140004C0140005001400054014042
:1056400000180040001C00400020004000400140C5
:105650000044014000480140181002401C10024064
:105660001C1002401C1002401C1002401C10024082
:105670001C1002401810024018100240181002407E
:10568000181002401C1002401C1002401C10024066
:105690001810024018100240181002400B000000C1
:1056A00000000000010000000200000003000000F4
:1056B00004000000050000000D00000013000000C1
:1056C00014000000150000000600000007000000A4
:1056D000080000001000000011000000120000008F
:1056E0000101016800020A00190000001C0000000E
:1056F0001D0000001E000000320000003600000007
:10570000370000002C000000180000001900000005
:105710001A0000002B0000002C0000002D000000EB
:1057200018000000190000001A000000405700088F
:10573000000400005A00000001000001C13E000802
:1057400053544D333220636F7265206472697665FD
:105750007200000025000000260000002700000065
:105760000E0000001100000012000000003801408F
:105770000044004000480040D7480008F1480008B5
:1057800011490008BA57000800040000C8000000D2
:1057900001000001B94A000841707020696E697407
:1057A0000A006170702074696D65722074696D659E
:1057B0006F757420746573740A00417070206D6198
:0457C000696E00000E
:0400000508000000EF
:00000001FF
