:020000040800F2
:10000000000001205101000875020008CD01000820
:10001000E3010008F90100080F02000800000000D9
:1000200000000000000000000000000025020008A1
:100030007502000800000000330200087502000885
:100040007F0200087F0200087F0200087F0200088C
:100050007F0200087F0200087F0200087F0200087C
:100060007F0200087F0200087F0200087F0200086C
:100070007F0200087F0200087F0200087F0200085C
:100080007F0200087F0200087F0200087F0200084C
:100090007F0200087F0200087F0200087F0200083C
:1000A0007F0200087F0200087F0200087F0200082C
:1000B0007F0200087F0200087F0200087F0200081C
:1000C0007F0200087F0200087F0200087F0200080C
:1000D0007F0200087F0200087F0200087F020008FC
:1000E0007F0200087F0200087F0200087F020008EC
:1000F0007F0200087F0200087F0200087F020008DC
:100100007F0200087F0200087F0200087F020008CB
:100110007F0200087F0200087F0200087F020008BB
:100120007F0200087F0200087F0200087F020008AB
:100130007F0200087F0200087F0200087F0200089B
:100140007F0200087F0200087F0200087F0200088B
:1001500072B61249124808601249134808601349E0
:100160001348086013490722120408681043086006
:1001700011481249086048608860C8600861486199
:100180008861C8610E490F4A881A0F4A40F8042B4B
:100190008842FBD300F0D2FA62B6FEE718ED00E029
:1001A000000000001CED00E0000000FF20ED00E07A
:1001B0000000FF0024ED00E0FFFFFFFF80E200E011
:1001C0000000012000020000CDCDCDCD704610F121
:1001D000030F02D1EFF3098101E0EFF3088100F092
:1001E00081B8704610F1030F02D1EFF3098101E0ED
:1001F000EFF3088100F0AAB8704610F1030F02D1A6
:10020000EFF3098101E0EFF3088100F0EDB87046EB
:1002100010F1030F02D1EFF3098101E0EFF3088140
:1002200000F01CB9EFF309800FC800F053F9DFF8B4
:1002300078F072B61D4A1E4810601E49CB68002B2C
:1002400004D0EFF3098020E9F00FD8600A69002A92
:100250000AD0D068B0E8F00F80F30988CA600020A7
:10026000086162B6DFF840F062B672B60F4A104815
:100270001060EBE7EFF30580103800F071BCEFF38E
:100280000580103800F08EBC08490B4808607047A4
:10029000C268D208D200403A084B536391635FF0C2
:1002A0008073D363C2607047FDFFFFFF04ED00E081
:1002B000000000080C00002000000010451200089B
:1002C00012DF7047033008B505D100F0B2FF044BD0
:1002D00000221A6008BDBDE8084000F021BA00BF46
:1002E00028ED00E038B5054613480C4600F04EFAFC
:1002F000124B1B689A0702D51148A1690BE04DF615
:100300001273A16931F8022C9A4205BF61690D4848
:100310000D4821F0010100F039FAEB1C07D1A36967
:1003200033F8022C4DF612739A4200D162B6284679
:10033000BDE83840FFF7C6BF18B200082CED00E05A
:1003400025B2000848B2000876B2000870B51D4C0E
:10035000064623680D4613F0180F14D01A4800F013
:1003600015FA2368D90601D5184802E01A0702D504
:10037000174800F00BFAA969164800F007FABDE823
:10038000704000F0CDB99B0717D00F4800F0FEF980
:1003900023689A0701D5104802E0DB0702D50F4811
:1003A00000F0F4F90E4B0F48AA69196800F0EEF955
:1003B0003046BDE87040FFF785BFBDE87040FFF7ED
:1003C00091BF00BF28ED00E094B20008A1B2000880
:1003D000B1B200082CB30008C3B20008D9B20008BB
:1003E00034ED00E0F6B2000838B5154D0C462B6828
:1003F00013F4F85F1FD0134800F0C8F92B68D90434
:1004000001D5114802E01A0504D51048A16900F091
:10041000BDF90CE013F4C06F01D00D4802E0DB051C
:1004200005D50C480C4BA269196800F0AFF9BDE87E
:10043000384000F075B9BDE83840FFF753BF00BF42
:1004400028ED00E011B300081DB3000838B3000820
:1004500055B300087EB3000838ED00E038B5044617
:1004600012480D4600F092F9114B1B68980101D516
:1004700010480FE0D90101D50F480BE01A0301D550
:100480000E4807E013F4A02F01D00D4802E09B03B3
:1004900002D50C4800F07AF90B48A96900F076F90A
:1004A0002046BDE83840FFF70DBF00BFAEB30008DF
:1004B00028ED00E0BCB30008CDB30008DEB30008AF
:1004C000F3B3000809B400082CB300086FF00A0069
:1004D00000F0A4BE70B50C4611461A46332800F24F
:1004E0001081DFE810F0340039003E00430048007E
:1004F0004D00520057006000640068006D007A00F3
:10050000760072007F0084008A008F0094009900BA
:100510009E00A300A800AD00B200B700BC00C1005F
:10052000C700CC00D100D600DB000E010E010E0189
:100530000E010E010E010E010E010E010E01E00072
:10054000E500EA00EF00F400F9000601140120467E
:10055000BDE8704000F080BC2046BDE8704000F06F
:1005600097BD2046BDE8704000F00EBD2046BDE8B6
:10057000704000F01FBD2046BDE8704000F072BD25
:100580002046BDE8704000F049BD2046BDE87040FF
:1005900000F084BD00F0ECFC00222146BDE8704074
:1005A000134600F0D3BDBDE8704000F069BEBDE861
:1005B000704000F0E1BE2046BDE8704000F002BB94
:1005C0002046BDE8704000F02BBBBDE8704001F054
:1005D000AFB8BDE8704001F089B82046BDE8704072
:1005E00001F07EB82046BDE8704001F0BDB820465D
:1005F000BDE87040D2B201F051B92046BDE870406C
:1006000001F08AB92046BDE8704001F0ADB920463E
:10061000BDE8704001F064B92046BDE8704001F0CB
:10062000CEBA2046BDE8704001F0D3BA2046BDE8FE
:10063000704001F0DBBA2046BDE8704001F06EBBAF
:100640002046BDE8704001F09BBB2046BDE87040ED
:1006500001F0C8BB2046BDE8704001F0F5BB204664
:10066000BDE8704001F008BC2046BDE87040D2B241
:1006700001F038BC2046BDE8704001F06FBC204658
:10068000BDE8704001F08EBC2046BDE8704001F02E
:1006900033BD2046BDE8704001F0E8BD2046BDE80E
:1006A000704001F00BBE2046BDE8704001F077BEFF
:1006B0002046BDE8704001F0C3BE2046BDE8704052
:1006C00001F038BE2046BDE8704001F054BE20461F
:1006D000BDE8704000F0EEB90D4B0E4A58689042EC
:1006E0000FD15C6099600C480C49BDE8704000F087
:1006F0004DB8074B20465D689A682B46BDE87040B0
:1007000018476FF00800BDE8704000F087BD70BD6D
:100710000C000020CD04000821B700081CB400081C
:10072000054808B500F032F84FF000504FF4007162
:1007300000F03EF8FEE700BF28B400080E4A4FF074
:10074000005310B55A600D4C0D4A00219A602046A6
:100750004FF4B4720AF086FC0A4B636000F00EFAA4
:1007600000F070F901F018F901F0D4FDBDE8104077
:10077000054800F075BD00BFD50400080C0000203E
:10078000D8B70008CD04000850C100080FB407B561
:1007900004A951F8040B054B01915A689B6805F0B8
:1007A00004F903B05DF804EB04B070470C000020BE
:1007B0002DE9F041064600EB01080F46124831468C
:1007C0004246FFF7E3FF34464445A4EB060311D04D
:1007D00013F00F0503D10D482146FFF7D7FF0C4852
:1007E00014F8011BFFF7D2FF0F2DEDD10948FFF7D9
:1007F000CDFFE9E73B0704D0BDE8F0410548FFF72E
:10080000C5BFBDE8F08100BF36B4000851B4000890
:100810005AB4000805C3000801466A464FF0005369
:100820009B6803481B68D0F85001DB68184700BF7D
:100830000C000020024B0146D3F8500100F068B9CB
:100840000C0000202DE9F04180460025114E0024C7
:10085000D6F8500100F066F9854218D22846FFF715
:10086000E9FF4FF000539B6834601B680746284639
:10087000DC68FFF7DFFF08300DB96A4602E097E851
:100880000C001A444146A04710B90135DEE7204666
:10089000BDE8F0810C00002038B5054600240C4B63
:1008A000D3F8500100F03EF984420BD22046FFF706
:1008B000C1FF0268AA4203D243681344AB4204D882
:1008C0000134ECE74FF0FF3038BD204638BD00BFA3
:1008D0000C0000202DE9F8438846064620B9BDE803
:1008E000F8430846FFF7AEBFFFF7D6FF071E02DA50
:1008F0000020BDE8F883FFF79DFF4FF000539B6891
:1009000002461B6808305C690FB96B4602E092E84A
:100910000A000B4431464246A04700283ED1054616
:100920001F4CD4F8500100F0FDF88542E0D2BD42E2
:1009300032D0002323602846FFF77CFF4FF000539E
:100940009B6881461B682846DC68FFF773FF083008
:100950000DB96A4602E099E80C001A444146A047E6
:100960000446C8B14FF00055AB6831461B6809F129
:1009700008001B6998473146024620460AF098FA5B
:10098000AB6838461B689D69FFF754FF3146083055
:10099000A8472046BDE8F8830135C1E7BDE8F883E4
:1009A0000C00002070B5054680B1FFF775FF0028E8
:1009B0000CDB4FF000539B681B689C69FFF73AFF04
:1009C00029462346BDE870400830184770BD000036
:1009D000F8B50D4B4FF000540022256823601A60D3
:1009E00007460E46FFF726FFA26803461268083046
:1009F000146A0FB96A4601E00CCB1A443146A0478D
:100A00004FF000531D60F8BD0C00002038B54FF0CA
:100A10000054044B2568002223601A60FFF712FF80
:100A2000256038BD0C00002038B54FF00054044B51
:100A30002568002223601A60FFF7B4FF256038BDE7
:100A40000C0000202DE9FF41174F184C01AE304635
:100A5000394601F0D5FD4FF00055C4F85061002330
:100A60002C602360AB68DFF84880DB684146D3F830
:100A700000C0142268460123E047AB684146DB68AA
:100A800068461B699847009B0546C4F850313146BB
:100A90000C2208300AF00CFA4FF68C632F606B6062
:100AA00004B0BDE8F08100BF740100200C000020FC
:100AB00060B4000870B504460E460025124BD3F80A
:100AC000500100F02FF8854212D22846FFF7B2FEFF
:100AD00001688C420AD34368A2190B449A4205D894
:100AE0006FF00500BDE8704000F098BB0135E5E708
:100AF00072B6064800F020F8214680E85000083021
:100B000001F07EFD62B670BD0C0000205C0100208B
:100B10004FF000539B680A46DB6801499B68184701
:100B20006CB400084FF000539B680249DB68DB6837
:100B3000184700BF6CB4000838B5074B4FF000549D
:100B40000022256823601A60A3680449DB681B69DA
:100B50009847256038BD00BF0C0000206CB4000829
:100B600008B501460448FFF711FEBDE808406FF0E4
:100B70000A0000F053BB00BF78B40008054B064ADA
:100B800043F8042F054A9342F9D1054B4FF0FF3249
:100B9000DA617047280000209CB40008380100206A
:100BA0000C00002038B50346054C083354F82330B8
:100BB000E5691A68E06159689047E56138BD00BF92
:100BC0000C00002043282DE9F0418846174602DD3D
:100BD0006FF00B0015E0800000F100540C34266A21
:100BE0000E4B9E4202D06FF005000AE072B60C2058
:100BF000FFF70CFF0546206262B630B926626FF03F
:100C0000C900BDE8F04100F009BBC0F800804760B2
:100C100000F0AEF9A860BDE8F08100BF9CB4000808
:100C2000800038B500F100540C34236A9D6800F050
:100C30009FF9854207D172B6206AFFF7F5FE62B6CA
:100C4000044B236238BD6FF00C00BDE8384000F063
:100C5000E5BA00BF9CB4000803681BB901600960D5
:100C6000496070474B6003681B680B6003681B6832
:100C7000596003681960704703685A689A4217BF41
:100C80001B680023136003681FBF5A681B685A6003
:100C9000036818BF5B680360704738B50568044691
:100CA0008D4203D1BDE83840FFF7E6BF0160FFF792
:100CB000E3FF256038BD0000044B186118B182685D
:100CC0004FF000531A60FFF7DFBA00BF0C0000209E
:100CD0000346007A48B15A680A605A68196852682F
:100CE0005A60521A18BF01221A727047084B1A68CC
:100CF00012B90060406008E042601A681268026041
:100D00001A68126850601B681860014B18607047C1
:100D10002000002030B5044685B0443000F06EFC61
:100D200022482146FFF7B9FF214B5D6935B92046BE
:100D3000FFF7DCFF2046FFF7BFFF35E0A269AB6994
:100D40009A4209D21B48FFF797FF2046FFF7CEFFD4
:100D50002046FFF7B1FF2C46164B1A6801921A681D
:100D600002921B68003318BF01238DF80C3001A8D4
:100D70006946FFF7ADFF98B1009BA1699A6991425E
:100D8000F5D20C4A1268934203D12046FFF7AEFF1A
:100D90000AE01A68636022601A6854601C6003E00D
:100DA00004482146FFF758FF05B030BD240000205D
:100DB0000C0000202000002037B50446114D1248D9
:100DC0006B699C4205D1FFF757FF6869FFF774FF15
:100DD00002E02146FFF761FF21460C48FFF73CFF88
:100DE000684600F00BFC04F1440069466A4604F0D2
:100DF0003AFE04F13C0168460A4604F02EFE03B0B8
:100E000030BD00BF0C000020200000202400002086
:100E1000436910B59B07044613D51C3000F022FD32
:100E2000636923F0F00203F00303022B626104D034
:100E3000032B06D12046FFF76DFF636923F0020301
:100E4000636110BD08B572B643699B0701D5FFF712
:100E5000DFFF62B608BD0000F8B505460C4672B665
:100E60005820FFF7D3FD206062B6002158220AF017
:100E7000F9F82368002B6BD0EB68D90104D42868FB
:100E80000AF09CF9B53000E0B420033020F00306EE
:100E900072B6686827683044FFF7B8FDB86062B67C
:100EA00020688768002F4BD06A68CD2132443846CD
:100EB0000AF0D8F8226800235361AB689168936107
:100EC0006B680B443344D3602268254902F11C004F
:100ED00000F0DEFC6B6820683344036100F064FEC0
:100EE000236898684FF0FF3343610361EB68DA01D0
:100EF00002D52B68836108E0B43029680AF000F954
:100F000023689B6803F1B4029A6123689968081DFD
:100F1000314401F075FB20682969FFF7B9F91148E0
:100F20002168FFF799FEEB68DB0717D52068436956
:100F300043F00103436172B6FFF7ECFE62B6F8BD01
:100F400072B6FFF771FD62B66FF0CA00276001E06C
:100F50006FF0C900BDE8F84004F0EDBCF8BD00BF7B
:100F6000450E00082400002083689869704700003F
:100F7000044AD369002BA3BF083352F82330986882
:100F8000D06870470C00002008B5C31C022B09D89C
:100F9000FFF7EEFF836805490548C8229B69FFF704
:100FA000F5FBFEE743690B6008BD00BFDBB400083A
:100FB000A8B40008C31C022B10B5044609D8FFF7DB
:100FC000D7FF836813491448D0229B69FFF7DEFBE3
:100FD000FEE772B611F0010F43690BD013F0030363
:100FE00002D0022B02D012E0FFF794FE636943F0B7
:100FF00001030BE003F00303012B02D0032B02D00B
:1010000005E0FFF7D9FE636923F00103636162B66F
:1010100010BD00BFDBB40008A8B40008C31C022B3D
:1010200010B5044609D8FFF7A3FF83680B490C48A5
:10103000EE229B69FFF7AAFBFEE772B683698B423B
:101040000AD04369816103F00303012B04D1FFF748
:10105000B3FE2046FFF75EFE62B610BDDBB40008AB
:10106000A8B4000808B5C31C022B09D8FFF780FFFD
:10107000836805490548FF229B69FFF787FBFEE768
:1010800083690B6008BD00BFDBB40008A8B400088A
:1010900010B50446FFF76CFF206010BD421C10B570
:1010A000044648D0C31C022B0AD8FFF761FF8368AF
:1010B0002149224840F215129B69FFF767FBFEE7C2
:1010C00072B6436903F00303012B07D1FFF774FEE7
:1010D0001B4BDA68A24204BF0022DA6063699B07F7
:1010E0001CD504F11C0000F0BDFB636903F0F003A4
:1010F000402B09D0502B0BD083B112480E494FF42E
:101100009972FFF743FB08E0204600F0ABFC05E0D6
:10111000A06B214600F0DEFD00E0FEE70A48214614
:10112000FFF7BBFD62B672B6A068FFF77DFC2046F4
:10113000FFF77AFC62B610BDDBB40008A8B4000863
:101140000C000020F8B4000824000020F8B51F4669
:10115000C31C022B04460E4615460AD8FFF708FFAB
:101160008368144914484FF4A1729B69FFF70EFB82
:10117000FEE772B643699B0706D510480D4940F259
:101180004512FFF703FBFEE7FFF716FE626945F025
:10119000020515436561A76362B656B133680BB9A2
:1011A000736833B104F11C003146BDE8F84000F02B
:1011B000FDBAF8BDDBB40008A8B40008F8B4000814
:1011C00008B5C31C022B0AD8FFF7D2FE8368064974
:1011D00006484FF4A9729B69FFF7D8FAFEE772B68A
:1011E000FFF716FE62B608BDDBB40008A8B400081D
:1011F00008B5C31C022B0AD8FFF7BAFE836805495D
:10120000054840F25B129B69FFF7C0FAFEE783686E
:10121000196008BDDBB40008A8B4000810B5044686
:10122000FFF7A6FE20B12146BDE81040FFF7E0BF62
:1012300010BD08B5FFF79CFE18B1BDE80840FFF7E8
:101240002DBF08BD08B5FFF793FE83680348996971
:10125000FFF79CFABDE80840FFF7EBBF0FB50008A9
:1012600007B5064A00231361D3605361936101A956
:10127000FFF7F2FD03B05DF804FB00BF0C00002097
:1012800010B5FFF775FE044672B6FFF795FD2046D0
:10129000FFF740FD62B610BD70B504462C4B4FF011
:1012A000005500222E682B601A60AB6880681B68AE
:1012B00086B0E2681B6A043001A998472E60A368D3
:1012C00024489969FFF762FAA1692348FFF75EFA9B
:1012D000A068043001F0ABFAA16823690B4498427E
:1012E000014610D3591A1D48194DFFF74FFA1C48F3
:1012F0002169FFF74BFA2B685BB11A48FFF746FAF2
:1013000000232B6010E050F8042BB2F1CD3FE6D063
:10131000E8E715480499029AFFF738FA1348039949
:10132000059A019BFFF732FAE56B3C22B5FBF2F11F
:10133000246C4FF47A7302FB1152B4FBF3F30C48A4
:10134000FFF724FA0B48FFF721FA06B070BD00BF83
:101350000C0000203AB5000844B500084EB500085E
:1013600054B5000859B5000871B500087FB50008EC
:101370008EB5000805C300082DE9F041684890B01B
:10138000FFF704FA6748FFF701FA72B6664B0025CB
:101390001A6803921A6804921B68003318BF01236D
:1013A0008DF8143003A86946FFF792FC20B100982D
:1013B000FFF772FF0135F5E75C4B1A6803921A6874
:1013C00004921B68003318BF01238DF8143003A862
:1013D0006946FFF77DFC044620B10098FFF75CFFEB
:1013E0000135F4E729465248FFF7D0F94D48FFF799
:1013F000CDF90BA82146142209F034FE26462546D5
:101400004C4FD7F85001FFF78DFB854242D228465A
:10141000FFF710FA804606A92846FFF7D9FA464892
:10142000D8F80010FFF7B2F94448D8F80410FFF7D5
:10143000ADF93B6833B14248FFF7A8F900233B60A0
:1014400001240AE03F480999079AFFF79FF93E48AF
:1014500008990A9A069BFFF799F93C48FFF796F915
:10146000D8F804300E9A1E44099B013513440E939C
:101470000C9A079B13440C930D9A089B13440D93ED
:101480000B9A069B13440B930F9A0A9B934288BFB7
:101490000F93B5E72E4B2F481968FFF777F92E49C0
:1014A0000B680A1DB3F1CD3F03D12C4B11469A4274
:1014B000F6D1C1F100512A4801F58031FFF766F9F4
:1014C0001E483146FFF762F91CB11D48FFF75EF96F
:1014D0000AE01C480E990C9AFFF758F91A480D9922
:1014E0000F9A0B9BFFF752F901A800F087F8019AB9
:1014F0003C23B2FBF3F1029C03FB11224FF47A73FD
:10150000B4FBF3F31748FFF741F91048FFF73EF932
:101510000448FFF73BF962B610B0BDE8F08100BFA8
:101520009CB50008E7B5000820000020240000203A
:1015300032B600080C00002047B6000854B5000879
:1015400059B5000866B6000872B6000805C3000861
:1015500018B4000880B6000800FE0020000001203A
:101560004EB500088EB5000803685A689A4217BF46
:101570001B680023136003681FBF5A681B685A600A
:10158000036818BF5B6803607047000008B5044833
:10159000FFF7FCF8BDE808406FF00A00FFF73EBE19
:1015A00092B6000808B50448FFF7F0F8BDE8084017
:1015B0006FF00A00FFF732BEB3B6000808B5044862
:1015C000FFF7E4F86FF00A00FFF728FE002008BDDF
:1015D000D3B600087FB5C3690490019390F8243016
:1015E0006FF002011B0443F002030293036A01A897
:1015F000039300F03BFA07B05DF804FB38B5094BE4
:101600000546D3F83021D3F834410260D3F84021A5
:10161000D3F844019047044B2044984294BF68603B
:101620006B6038BD0C0000203F420F001FB5002347
:10163000019372B6284CD4F84831002B40D002A850
:10164000FFF7DCFFD4F8480102A9083004F0FFF9E5
:10165000002813DBD4F84841002323761F48FFF706
:1016600083FF019B1BB9019464602460E2E71A6860
:10167000636022601A6854601C60DBE7D4F848316C
:101680009A68029B9A421BD1D4F84031D4F84401A5
:101690009847D4F834311844C4F83401D4F83C31B4
:1016A000D4F844019847D4F84831D4F83401DB68C1
:1016B000D4F84411181AC4F84C01D4F838319847BA
:1016C00062B6019C34B101A8FFF74EFF236960693F
:1016D0009847F6E704B010BD0C000020540100202C
:1016E00008B572B6FFF78AFF62B608BD38B572B6A4
:1016F0000D4C0025D4F83031D4F844010133C4F83E
:101700003031C4F84C51D4F83C319847D4F83831D2
:101710000648D4F844119847C4F8345162B6BDE87D
:101720003840FFF783BF00BF0C00002080841E00FC
:1017300008B572B60A4B0B48D3F84C11D3F83421D4
:101740000A44C3F834210022C3F84C21D3F84411D1
:10175000D3F83821904762B6BDE80840FFF766BF6E
:101760000C00002080841E000D4B30B50D4AD3F8CC
:10177000385195420ED1026845688068C3F83C51E3
:10178000C3F84001C3F83821C3F844110648BDE846
:10179000304010476FF00800BDE83040FFF73EBD15
:1017A0000C0000208D15000880841E002DE9F743F1
:1017B0000D4604466846FFF793FF2B6804F10806C0
:1017C000A3606B686846E3603146324604F045F931
:1017D00072B6234B1F683D4617F1000918BF4FF042
:1017E0000109B9F1000F23D0D5F8048005F10800F4
:1017F000B8EB0709314618BF4FF0010904F027F98B
:10180000002813DA164B1A686560954208D11A68E9
:10181000126822601A68126854601A68146016E030
:101820002B6823602B685C602C6011E04546D8E78C
:101830000B4B1A681AB91C602460646008E062608F
:101840001A68126822601A68126854601B681C606B
:101850000123237662B6FFF7E9FE03B0BDE8F0830B
:1018600054010020037E70B5054673B1074C26680D
:10187000864203D12046FFF777FE04E02060204631
:10188000FFF772FE266000232B7670BD5401002006
:10189000002301614261037670470000F8B50746F6
:1018A0000E461546FFF764FB044672B62820FFF784
:1018B000ADF8386062B630B92046BDE8F8406FF048
:1018C000C901FFF795BC054BC461036100230662A3
:1018D00080F8245040610376F8BD00BFD51500089C
:1018E000421C08B5034611D00333022B0AD8FFF778
:1018F0003FFBFFF739FB06490346D6220548FEF7B2
:1019000045FFFEE772B6FFF78FF862B608BD00BF6D
:10191000F6B60008A8B4000838B504460D46FFF72F
:1019200027FBE31C022B0AD8FFF722FBFFF71CFB67
:101930000B490346E2220B48FEF728FFFEE772B68A
:1019400062B6237E2BB1BDE838406FF00501FFF78A
:101950004FBC20462946BDE83840FFF727BF00BFEF
:10196000F6B60008A8B4000808B5C31C022B0AD8B4
:10197000FFF7FEFAFFF7F8FA05490346F222054899
:10198000FEF704FFFEE772B6FFF76CFF62B608BD14
:10199000F6B60008A8B40008054B064AC3F838217B
:1019A000054AC3F83C21054AC3F84021704700BFEF
:1019B0000C0000208D150008A5150008BD150008B5
:1019C0008142F8B504460D4617461E460CD16FF00D
:1019D0001101FFF70DFC2846FFF7C6FABDE8F840F5
:1019E00001461F48FEF7D2BE002140220346FFF702
:1019F000ADFB72B6A268D2F81CE0136A734521D021
:101A00001421594302F1280000EB010C4158A9426E
:101A100001D0A91C0ED1DCF80410B94201D0781C09
:101A200008D1DCF80810B14202D1002B0FDA0BE02C
:101A3000B11CFAD0506A591C81424FF0000338BFE4
:101A40000B46DBE74FF0FF33E5642765666562B65A
:101A5000002B04DB2046BDE8F840FFF7B1BBF8BD22
:101A600013B700084FF0FF33C3647047F7B505683C
:101A70000446EB1C022B0E460AD8FFF779FAFFF753
:101A800073FA4349034642224248FEF77FFEFEE7CF
:101A900043681A0404D472B6EB6CB34216D117E053
:101AA000C3681868C31C022B0AD8FFF761FAFFF756
:101AB0005BFA3749034647223648FEF767FEFEE7E2
:101AC000294600F09AFC0028E5D15EE002330BD1F4
:101AD0002B6D6268934201D0013305D16B6DA26812
:101AE00093424DD002334BD00020AB68D3F81CE0BA
:101AF0005F6A0EF10101B94234BF8C464FF0000C11
:101B00001A6A94451DBF61467246D9614FF0FF3293
:101B100062B6002A13DB14214A43676828339918F8
:101B20004F60A7688F60E7682469CF600C619E50A2
:101B300058B3284603B0BDE8F040FFF741BB6FF053
:101B40000D013046FFF754FB2846FFF70DFA01461A
:101B50001148FEF71BFEF31C03D11048FEF716FEDA
:101B600006E03046FFF700FA01460D48FEF70EFE8C
:101B70002369211D00930B480EC9FEF707FEFEE7FF
:101B80004FF0FF33EB640120AFE703B0F0BD00BFBF
:101B900025B70008A8B400083EB7000860B70008E1
:101BA00070B700087CB70008836800221A62DA6107
:101BB00007225A624FF0FF33C3640365704710B5C4
:101BC0000446FFF7D5F901462046BDE81040FFF76F
:101BD0004DBF70B50D4614460646FFF7C9F93146AC
:101BE0002A462346BDE87040FFF7EABE70B50446BA
:101BF000FFF7BEF9054620462946FFF737FF626822
:101C000028462168A36822F00042BDE87040FFF733
:101C1000D7BE036882680133934228BF002340681F
:101C20001B1A58425841704703685A689A4217BFB6
:101C30001B680023136003681FBF5A681B685A6043
:101C4000036818BF5B680360704738B505680446D1
:101C50008D4203D1BDE83840FFF7E6BF0160FFF7D2
:101C6000E3FF256038BD70B506460D4633687BB18D
:101C70002C684FF0FF33A3602846FFF7D5FFE068DC
:101C8000FFF79EFAE0686FF00901FFF7B1FAEDE7A0
:101C900070BD10B50446FFF7BCFF80B12269A06893
:101CA0001346141C00F1FF3018BF012484B1596899
:101CB0009B698C1A184418BF01240B46F6E794E878
:101CC0000900834282BFA268801800F1FF30C01A69
:101CD00010BD0000C31C022B10B504460AD8FFF744
:101CE00047F9FFF741F90B49034637220A48FEF747
:101CF0004DFDFEE7037C012B04D0022B07D1806849
:101D0000103001E0806814302146FFF79EFF002369
:101D1000237410BDA1B70008A8B40008F8B50446A4
:101D20000E46FFF725F9074672B62420FEF76EFE31
:101D30000546206062B618B938466FF0C90110E058
:101D400072B63046FEF762FEE86062B62068C5688B
:101D50005DB972B6FEF768FE62B6384625606FF070
:101D6000CA01BDE8F840FFF743BA00234FF0FF3245
:101D7000436003608660826143610361F8BD0000D7
:101D800070B505460C46FFF7F3F86B1C064601D10B
:101D9000256070BDEB1C022B0AD8FFF7E9F8FFF7AE
:101DA000E3F80E4903466E220D48FEF7EFFCFEE70E
:101DB00072B61C20FEF72AFE206062B630B1C66003
:101DC000236800229D6023681A7470BD3046BDE808
:101DD00070406FF0C901FFF70BBA00BFA1B7000850
:101DE000A8B40008431C10B5044627D0C31C022B1E
:101DF0000AD8FFF7BDF8FFF7B7F811490346832269
:101E00001048FEF7C3FCFEE7037C012B04D0022B35
:101E10000FD18068103001E0806814302146FFF750
:101E200014FFE068FFF7CCF9E0686FF00901FFF7F5
:101E3000DFF972B62046FEF7F7FD62B610BD00BFAF
:101E4000A1B70008A8B40008C31C022B10B50C46AB
:101E50000AD8FFF78DF8FFF787F8054903469C225B
:101E60000448FEF793FCFEE7FFF713FF206010BD68
:101E7000A1B70008A8B4000838B5C31C022B0AD8C3
:101E8000FFF776F8FFF770F814490346A5221448C7
:101E9000FEF77CFCFEE790E81800A34212D18368AD
:101EA0004269013B0B601346141C18BF01249CB10E
:101EB00058680D689B69841A2B440B6018BF012475
:101EC0000346F4E79C4297BF8268E31A121902F1B5
:101ED000FF3298BFD31A0B6038BD00BFA1B700080E
:101EE000A8B40008F0B5C31C022B87B004460F4607
:101EF00015460AD8FFF73CF8FFF736F815490346B0
:101F0000B7221548FEF742FCFEE7FFF731F8064618
:101F10002046FFF7BEFEA369013313D168B12D043B
:101F200045F0010505906FF0020101A801960295A8
:101F300003970494FFF79AFD09E0A661E76184F82E
:101F4000205004E030466FF00C01FFF751F907B064
:101F5000F0BD00BFA1B70008A8B40008C31C022B45
:101F600010B504460AD8FFF703F8FEF7FDFF0B494A
:101F70000346D4220A48FEF709FCFEE7FEF7F8FF05
:101F8000A369984203D14FF0FF33A36110BD6FF0F6
:101F90000C01BDE81040FFF72BB900BFA1B7000846
:101FA000A8B400082DE9F041044686B00E46174655
:101FB000FEF7DEFFE31C022B80460AD8FEF7D8FFAF
:101FC000FEF7D2FF49490346E3224948FEF7DEFB0C
:101FD000FEE7237C2BB147484449E522FEF7D6FBB8
:101FE000FEE7A368013304D16FF00901FFF700F9A0
:101FF00078E0A761A369002B3CD0A2685569002D49
:1020000038D0AA6968699342314611D308F050FF6D
:10201000A369AA69A0689B1AA361AB6914301E4426
:10202000FFF702FE00232B74E868FFF7C9F8E1E729
:102030001A4608F03DFFA169AB696A695B1AAB619A
:10204000A3690A441E4400236A61A361D2E7A5681C
:102050002846FFF7DEFD88B92A68A968531C8B4221
:1020600028BF00232B6016F8013BE8688354A3695E
:10207000013BA361A369002BE9D10DE00223666156
:1020800023742B6923BB2C612460646040460021CB
:1020900050222346FFF75AF8A468A3695A1C21D09E
:1020A00007B3019394F8203020461B0443F001034A
:1020B0000293E36904940393FFF7EBFD4FF0FF33C2
:1020C0000590A36101A86FF00201FFF7CFFC09E0C2
:1020D00063602B691B6823602B691B685C602B693C
:1020E0001C60D3E706B0BDE8F08100BFA1B70008CF
:1020F000A8B40008F8B400082DE9F04104460D46E4
:102100001646FEF735FFE31C022B80460BD8FEF780
:102110002FFFFEF729FF5249034640F22312514890
:10212000FEF734FBFEE7237C33B14F484C494FF4B4
:102130009372FEF72BFBFEE7A368013305D16FF026
:102140000901BDE8F041FFF753B82946A661A3692C
:102150000F46002B2BD0A36858681A68824226D0FD
:102160009E68421CB24228BF0022DD685A602B5C88
:1021700001F8013BA369013BA361E8E72E69002E4A
:1021800052D0B26938469342716915D308F090FE77
:10219000A369B269A0689B1AA361B36910301F4498
:1021A00000233374FFF740FDF068FFF709F8A369D7
:1021B000A568002BE2D12EE01A4608F079FEA2694C
:1021C000B3699B1AB361A2697369174413447361BD
:1021D0000023A361EBE7ABB12A68A868531C8342D4
:1021E00028BF00232B606369E968581C60611B7875
:1021F0008B54A369013BA3612846FFF70AFDA3693D
:102200000028E8D03BB905F110002374FFF70CFD5E
:10221000E068FEF7D5FF2C6904B32846FFF7F9FC08
:102220000028E9D0BDE8F0810123676123746B6960
:102230001BB96C612460646008E063606B691B68B3
:1022400023606B691B685C606B691C6040462346B9
:10225000BDE8F04100215022FEF778BFBDE8F081D3
:10226000A1B70008A8B40008F8B4000838B5C31C2A
:10227000022B04460BD8FEF77BFEFEF775FE0D49D8
:1022800003464FF4AB720C48FEF780FAFEE7436852
:1022900003604FF0FF33836125694DB1002304F1E2
:1022A00010002B74FFF7C0FCE868FEF789FFF3E726
:1022B00038BD00BFA1B70008A8B4000838B5431C5A
:1022C000044621D0C31C022B0BD8FEF751FEFEF7AB
:1022D0004BFE0E49034640F277120D48FEF756FAC0
:1022E000FEE700F1100528462946FFF7BCFC28460A
:1022F00004F11401FFF7B7FC72B6E068FEF794FB37
:102300002046FEF791FB62B638BD00BFA1B70008BA
:10231000A8B40008064B4FF0FF32C3F85421C3F8AD
:102320005821C3F85C21C3F86021C3F864217047C9
:102330000C00002038B504460D46FEF719FE042CAB
:10234000034612DCA00000F100500C30D0F85421FC
:10235000511C03D0934204D16A1C02D1C0F85451DD
:1023600038BD18466FF00C0101E06FF00B01BDE8BD
:102370003840FEF73DBF38B504460D46FEF7F8FD80
:10238000042C06DCA00000F10050D0F860312B6076
:1023900038BD6FF00B01BDE83840FEF729BFF8B536
:1023A00007460E46FEF7E4FD054672B61820FEF716
:1023B0002DFB044662B6C8B100230561C5600375F4
:1023C00072B614363046FEF721FBA060386062B664
:1023D000A3683BB92046FEF727FB28466FF0CA01E9
:1023E000FEF706FFA3681C605E60F8BD2846BDE8E6
:1023F000F8406FF0C901FEF7FBBE70B504460E460B
:10240000FEF7B6FD2369834205D06FF00C01FEF79D
:10241000EFFE002511E0257D6DB172B6A068FEF7D4
:1024200003FB2046FEF700FB62B66FF00901304661
:10243000FEF7DEFE01E026610125284670BD0000A2
:1024400010B550B30468FEF793FDE21C022A0AD8C7
:10245000FEF78EFDFEF788FD104903464C2210481A
:10246000FEF794F9FEE7E268904205D0BDE810401F
:102470006FF00C01FEF7BCBE72B6226901238242E6
:102480001CBF2375002362B63BB172B6A068FEF78D
:10249000CBFA2046FEF7C8FA62B610BDBDB70008F9
:1024A000A8B400080B6810B50468406823441360A2
:1024B0004B6803445360536805498B4207D9116840
:1024C000A3F5742301311160A3F51073F2E710BD79
:1024D0003F420F00034AB0FBF2F30B6002FB130311
:1024E0004B60704740420F004FF47A73B0FBF3F239
:1024F0000A6003FB120253434B60704740F66202CE
:10250000036893429DBF4268024800FB03200248D3
:10251000704700BF40420F00805CE97F0368064AB5
:1025200093429FBF40684FF47A72B0FBF2F002FB17
:10253000030088BF014870479AC4200090F9FF7FCC
:102540000A6803689A420CD808D14A6843689A42DC
:1025500007D814BF4FF0FF30002070474FF0FF3016
:1025600070470120704770B505460E461446FFF7C8
:10257000E7FF002814DD33682A6869689A1A7368CF
:1025800022608B423BBF03F5742303F510735B1A83
:102590005B1A37BF02F1FF3263606360226070BD77
:1025A00000236360236070BD13B50446684603F0E2
:1025B00072FA204669466A46FFF7D5FF6846FFF77C
:1025C0009DFF02B010BD13B50446684603F063FAE0
:1025D000204669466A46FFF7C6FF6846FFF79EFF3A
:1025E00002B010BD37B50C460546684603F053FAF5
:1025F000284669462246FFF7B6FF204603B030BDA5
:10260000033121F003010B1D8360436000230B6045
:102610000360704731B151F8043C6FF00300401A79
:10262000184470470846704710B5002939D0036830
:10263000002223B1994202D91A461B68F9E78B425E
:102640000BD051F8044C8C4207D90BB19C4204D8F2
:102650004AB152F8044C8C4205D9BDE810406FF0E5
:10266000CB0003F068B90B606AB1116083B151F817
:10267000040C98420BD153F8040C41F8040C186870
:1026800008601B6803E00160002BF0D110BD42B16F
:1026900052F8040C884202BF51F8041C136042F83F
:1026A000041C10BD836870B553F8046C054616B160
:1026B0006FF0CB0007E0CC1804349C4201D3A24257
:1026C00005D86FF0C80003F036F9002070BD43F85C
:1026D000044CCE508168FFF7A7FFAC60012070BDAD
:1026E0002DE9F041CC1C0546904624F0030431B19D
:1026F0008368DC4206D36FF0C80003F01CF90020A9
:10270000BDE8F081022728680022E8B150F8046C87
:1027100001190B1DB342A0F1040E12D801F10C04F3
:10272000B4429FBF0E60016840F8043C196098BF36
:102730000360036812B11360BDE8F0812B60BDE84F
:10274000F08102460068E0E7284621464246FFF74E
:10275000A9FF0028D3D0012FD1D00127D3E72DE93D
:10276000F74FD41C064691469B4624F003040D46C1
:1027700031B921461A4603B0BDE8F04FFFF7B0BFAC
:10278000A1F1040A51F8047C002C47D0FFF742FF66
:1027900080460223326800218AB1BA420FD80BD199
:1027A00052F8040CCAF80000126809B10A6000E08F
:1027B0003260DAF8007002E011461268ECE7444536
:1027C00004D829190431B94211D91AE0B268019329
:1027D0009742F6D13046C8EB04015A46FFF762FF34
:1027E0000028EED0019B012BEBD00123D2E77B1A0E
:1027F000072B16D92F51304645F8041CFFF714FF5C
:102800000FE0304649465A46FFF76AFF044650B18A
:102810002946424608F04CFB30462946FFF704FFA4
:1028200001E0284600E0204603B0BDE8F08F806854
:102830000430704738B545684DB182683AB1954269
:1028400005D80368934202D852F8044C2CB16FF0BB
:10285000CB0003F070F8002038BD914209D26FF030
:10286000C800F6E79542F2D855F8041C2C4649B149
:102870000D46AC42F6D9EAE79942E8D89342E6D849
:1028800019461B68002BF7D1012038BD70B50646EC
:102890001546084614220C46002108F0E3FB2946A1
:1028A0003046FFF7C7FFB16820B901F10C039D4224
:1028B00020D270BD96E805008A42F6D052F8046C2A
:1028C0006FF003039B1A824233440BD1206801301E
:1028D000206020698342A06888BF23610344A3600D
:1028E000106805E0626801326260E2681344E360E8
:1028F0003246E1E76FF007035B1A1D44236801339A
:10290000236023699D42A36888BF25611D44A5609B
:1029100070BD000070B504460D4616460A2C05DD54
:1029200007480A213246A8470A3CF7E7002C06DD93
:10293000214632462B46BDE870400148184770BD1D
:102940002BB8000870B504460D4616460A2C05DD66
:1029500007480A213246A8470A3CF7E7002C06DD63
:10296000214632462B46BDE870400148184770BDED
:1029700014B8000838B503460C46154610681946C9
:10298000224608F095FA2B681C442C6038BD02469C
:1029900030B50023141A8C420ADA12F8014BA4F164
:1029A0003005092D04D80A2505FB0343303BF1E728
:1029B000184630BDF8B5C1B100F10B060024B1FBDB
:1029C000F2F502FB1511C9B2092905D9002B14BF74
:1029D00037275727394400E03031C9B206F8011DC6
:1029E00001342946002DEAD102E03023837201240C
:1029F000C4F10B010144224608F0D0FA2046F8BD8C
:102A000042F20E72904238B503460C4605D9830A4D
:102A1000934204D99B0A022502E0002500E001252B
:102A2000194620460A220023FFF7C4FF35B1054AA4
:102A3000431CAA5C22544222E25402300023235455
:102A400038BD00BF1DB800082DE9F04F994600239E
:102A5000824690460C461F461D468BB003931AF8DB
:102A60000730002B00F0B281252B07F1010140F067
:102A7000A7811AF801300E46252B07D10AEB050075
:102A8000491B4A46C047BD1C01949CE1AF4204D992
:102A90000AEB0500791B4A46C0474FF0010B1AF8B4
:102AA00006300AEB0600002B00F098811BF0010FA6
:102AB0001DD02B2B11D006D8202B11D0232B13D1B6
:102AC0004BF0100B0EE02D2B04D0302B0CD14BF023
:102AD000200B07E04BF0020B04E04BF0040B01E08D
:102AE0004BF0080B0136DAE70BF0FE0BD7E72A2B89
:102AF0005F4601D0024604E02368751C029304344B
:102B00000FE0CAEB020512F8013B303B092BF8D964
:102B1000B54204D9A91BFFF73AFF029001E0002358
:102B200002931AF805302E2B1AD1691C1AF80130BD
:102B30000AEB01002A2B01D00D4603E0266802357E
:102B400004340EE01AF80530303B092B01D801356A
:102B5000F8E78D4204D9691AFFF719FF064600E02D
:102B600001261AF805206B1C682A03D06C2A08BFBE
:102B70001D4602E01D464BF040070AEB0503049397
:102B80001AF80530692B2DD00AD8622B00F09C80F2
:102B900001D8582B0DE0632B0DD0642B22D0A6E07A
:102BA000732B0FD002D86F2B72D0A0E0752B3FD0C3
:102BB000782B52D09BE0231D0193236801248DF8CC
:102BC0001B3098E0231D019323681846039308F0F7
:102BD000F5FA012E044640F28E80864280F08B800A
:102BE000344688E0B90603D5029B9E4238BF1E4694
:102BF000231D24687A0648BF24B2002C01930BDA07
:102C0000614207A80A220023FFF7D4FE67F07F077E
:102C10008346441CFFB264E062D0214607A80A2222
:102C20000023FFF7C7FE17F00C0F0446834646E06B
:102C3000BB0603D5029B9E4238BF1E46216878061C
:102C400004F1040348BF89B2019300293AD007A8D0
:102C50000A220023FFF7AEFE41E0B90603D5029A2F
:102C6000964238BF1646221D216801927A0648BF57
:102C700089B239B3A3F158046342634107A8102213
:102C8000FFF798FEFB06044683462AD5023428E067
:102C9000BB0603D5029B9E4238BF1E4621687806BC
:102CA00004F1040348BF89B2019359B107A808226F
:102CB0000023FFF77FFE0446834617F0100F10D065
:102CC00001340EE00C460BE020687A0604F10403A0
:102CD00048BF80B2019310B107A9FFF791FE0446E7
:102CE000A346B34509D2CBEB0404344405E0019478
:102CF0000024A34601E04FF0000B07F0020202F0AF
:102D0000FF0305932AB9029B4146181B4A46FFF769
:102D100001FE049B01351A78692A1CD009D8622A61
:102D200019D001D8582A0DE0632A0DD0642A12D098
:102D30003DE0732A0CD002D86F2A23D037E0752AE1
:102D400009D0782A16D032E00DF11B0001212CE0C9
:102D50000398214629E03B0601D5234818E0BBF142
:102D6000000F18D0780701D5204811E0390712D597
:102D70001F480DE0BBF1000F0DD0FA060BD51D4822
:102D8000022106E0BBF1000F05D0FB0603D51A486F
:102D900001214A46C047B34505D2CBEB0600414668
:102DA0004A46FFF7CFFD594607A84A46C047059B4C
:102DB0004BB1029B4146181B4A46FFF7ABFD02E0B0
:102DC0000F46019400E02F46019C48E6AF4207D928
:102DD0000AEB0500791B4A46C04701E05F4689E6D9
:102DE0000BB0BDE8F08F00BF22B8000824B800087F
:102DF00064B6000826B8000829B8000807B502AB79
:102E000043F8040D08461146044AFFF71DFE019BD6
:102E100000221A7003B05DF804FB00BF752900089A
:102E2000014A0023FFF710BE6F2E000870B50D4653
:102E300014460646002002F07EFD31462A4623460F
:102E40001E20FDF73DFA02F071FDB0FA80F0400956
:102E500070BD07B502A901F8010D4FF000531B68C2
:102E600001221869FFF7E2FF03B05DF804FB034697
:102E70000A464FF00051096808691946FFF7D6BFA6
:102E800038B54FF000531B6804461D6908F096F9E9
:102E9000214602462846BDE83840FFF7C7BF13B5B4
:102EA0004FF000531B6800205C6902F044FD21468E
:102EB0000DF1070201231F20FDF702FA02F036FD93
:102EC0009DF8070002B010BD70B505460E460446D9
:102ED000FFF7E5FF0A28207005D0631B721E93429E
:102EE00001DA0134F4E700232370284670BD70B581
:102EF000064603FB02F01D460C300B68144698474B
:102F0000306018B1002345600360846070BD10B567
:102F100004468B68006898470023236010BD00B109
:102F200000687047006808B100230360704710B55F
:102F30000446006848B18268036853434A6803F155
:102F40000C01904703682060436010BD08B560B174
:102F500003689A4205D36FF00B0002F0ECFC0020EE
:102F600008BD836803FB02000C3008BD38B5044679
:102F700000680D46C8B190E80C00934202F10102CE
:102F800001D9026009E081680133594380E80C00EF
:102F90000C316B68984740B1206020682946BDE835
:102FA00038400268013AFFF7D1BF002038BD000069
:102FB000F8B54FF000539B680E46DB6812491B6959
:102FC000054617469847F0B129680B689F4205D31C
:102FD0006FF00B0002F0AFFC2868F8BD8A68013B77
:102FE00007FB022404F10C00A41ADB1B0C345A4327
:102FF0000844214407F0D2FF286831463A46BDE82C
:10300000F840FFF7A3BFF8BDA8BA0008036870B581
:103010000546D3B11C68A24205D36FF00B0002F045
:103020008AFC2B6811E09E68013C06FB02F101F16D
:103030000C0031440C31A21A18441944724307F0B1
:10304000ADFF2B681A68013A1A60184670BD10B5BA
:1030500004320446FFF74BFF18B120466FF07F4360
:10306000636010BDFFF753BF70B506460D460024E0
:1030700030682946FFF753FF844213D22246306856
:103080002946FFF763FF02686FF07F43B3EB122F0F
:1030900006D0306829462246FFF758FF006870BD09
:1030A0000134E5E74FF0FF3070BD70B506460D46C0
:1030B000120A541C30682946FFF731FF844213D2AC
:1030C000224630682946FFF741FF02686FF07F43D0
:1030D000B3EB122F06D0306829462246FFF736FFA1
:1030E000006870BD0134E5E74FF0FF3070BD70B58A
:1030F000054600680E46FFF712FF04466A686FF047
:103100007F439A4207D028683146FFF71FFF0268C5
:10311000013C120AF3E7204670BDF8B50546006889
:10312000140A0F461646FFF7FAFE844202D36FF0E8
:103130000B0019E0224628683946FFF707FF0268AE
:103140006FF07F43B3EB122F02D16FF004000BE05E
:10315000224628683946FFF7F9FE0268724012F0ED
:10316000FF0F05D06FF0070002F0E5FB0020F8BD6F
:103170000120F8BD70B506460D461446FFF7CDFF99
:1031800028B130682946220AFFF7E0FE043070BDFE
:10319000F8B544686FF07F439C4205460E4615D152
:1031A000FFF7E4FE38B32C6831462046FFF7B7FE40
:1031B0003146421E2046FFF7C9FE314607462868C1
:1031C000FFF7ADFE013804023C6016E022460068BD
:1031D000FFF7BCFE0078314640EA04246A6828689C
:1031E000FFF7B4FE0460314628686A68FFF7AEFE58
:1031F00043686B6001E04FF0FF342046F8BDF8B53E
:1032000005460F461446FFF788FF88B1260A39465F
:1032100032462868FFF79AFE6B68394643603246AB
:103220006E602868FFF792FE013464F0FF040460CA
:10323000F8BD0000F0B50C0950F824502E1D40F8E0
:10324000246045B91348144E50F82470B569012024
:10325000B8402843B061114801F00F0550F8240030
:1032600001F007018900EF100F2404FA01F650F86D
:1032700027408A4024EA06042243C16840F82720F8
:103280000122AA4021EA0202C260C268AB40134395
:10329000C360F0BDC8B8000800100240E4B80008E0
:1032A00070B501F00F0505F00C0303F1804303F541
:1032B00080339C6801F003060F20B04024EA000030
:1032C000986098680909B140014399600121A940BB
:1032D000CD430C4B9C682C409C60D8682840D8603B
:1032E000D00742BF986808439860920742BFDA68E7
:1032F0000A43DA601A680A431A605A68114359602F
:1033000070BD00BF00040140124B0A0970B553F8AC
:103310002250C1F3C00601F0070155F8263089009C
:103320000F248C4023EA0404012303FA01F1214312
:1033300045F8261050F82210043940F8221041B9FF
:10334000054C064854F822208169934021EA030382
:10335000836170BDE4B80008C8B8000800100240DE
:1033600001F00F0101228A40D243074B1868104038
:103370001860596811405960996811409960D9687E
:103380000A40DA60704700BF00040140002120229B
:1033900007F068BE4B680A46C3F30E03A3F58073BB
:1033A000032B15D8DFE803F005020D11117AFFF7A2
:1033B000ABBF1369117A0033127B18BF0123FFF7EB
:1033C00039BF117AD268FFF76BBF117AFFF7C8BF18
:1033D0006FF0010002F0AFBA07B54FF0FF3302AA59
:1033E00042F8043D2F2001210023FCF769FF0198DA
:1033F00003B05DF804FB000013B50446032920D890
:10340000DFE801F0020A1216FFF7E6FF002300933F
:103410000D492246032312E0FFF7DEFF002300934D
:103420000949224604230AE0FFF7D6FF012302E000
:10343000FFF7D2FF0023224603490093082302F03E
:10344000A5F902B010BD00BF00010180044B0209C4
:1034500053F8222000F00F0001238340536170478E
:10346000E4B80008184910B54B68DA031DD5CB6ADB
:10347000DB0312D5C86A154AC0F3032002300F28B7
:1034800018BF0446C86A08BF1424C0F303100130F3
:10349000B2FBF0F000FB04F300E00C4BC86A00F054
:1034A0000F000130B3FBF0F000E009484B68C3F3B4
:1034B000834302330F2B03BF0A2390FBF3F000EB8F
:1034C0008010584310BD00BF0010024000366E014E
:1034D00000093D00154B02281A6822F080721A601C
:1034E0001A6822F080621A605A6822F470125A60D8
:1034F000DA6A22F4803222F00F02DA62DA6A42F0EB
:103500000102DA625A6842F480125A605A680CBFAB
:1035100042F4803222F480325A601A6842F080729B
:103520001A601A689201FCD5704700BF0010024073
:10353000074B1A68D0030AD41A6842F480321A6022
:103540004FF4A0621968890301D4013AFAD1704797
:1035500000100240F8B5324C0023E669E361A5692A
:10356000A3616769636100BF00BF636823F0030361
:1035700063606268C2F38102002AFAD100BF00BF13
:10358000022807D0052801D0264805E0FFF76AFF8A
:10359000022201E024480122636823F460510023E1
:1035A000DFF88CE020FA03FCF44503D90133052B46
:1035B000F6D100E003B1033341EAC32363606368DB
:1035C00023F4E0610023DFF86CE020FA03FCF4450B
:1035D00003D90133052BF6D100E003B1033341EAEF
:1035E00003236360104B0138B0FBF3F00F4B40F046
:1035F00010001860BFF34F8FBFF35F8F00BF00BF95
:103600006368134363606168054BC1F381019142B4
:10361000F9D100BF00BF5F61DE619D61F8BD00BFF1
:103620000010024000127A0000366E0100200240B5
:1036300000A24A0400512502084B5B6803F00C030A
:10364000042B06D0082B06D0002B054818BF0020FD
:10365000704704487047FFF705BF00BF00100240E5
:1036600000127A0000366E010A4B10B55A68120635
:1036700009D55B680124C3F3021301339C401F2C5E
:1036800002DD640000E00124FFF7D6FF90FBF4F0B8
:1036900010BD00BF00100240084B10B55A689204DC
:1036A00041BF5B680124C3F3C12301334CBF9C407D
:1036B0000124FFF7D9FF90FBF4F010BD0010024089
:1036C000084B10B55A68520541BF5B680124C3F32B
:1036D000012301334CBF9C400124FFF7C5FF90FB41
:1036E000F4F010BD0010024008B5FFF7D5FF044B01
:1036F0005B68C3F3813301335B00B0FBF3F008BDBB
:103700000010024008B5042818D8DFE800F00307CD
:103710000B0F1300BDE80840FFF78EBFBDE808405F
:10372000FFF7A2BFBDE80840FFF7CABFBDE80840E9
:10373000FFF7B2BFBDE80840FFF7D6BF6FF0060045
:1037400002F0F9F8002008BD08B5124B0022DA613A
:103750009A615A615A60DA62D96941F08051D9613F
:10376000996941F0010199610821A3F588335960F5
:1037700009494B6823F480734B60C2620263426361
:10378000FFF7D6FE0220FFF7A5FEBDE808400520A2
:10379000FFF7E0BE001002400070004038B54B68F3
:1037A0000446C3F30E03B3F5817F0D4608D040F203
:1037B0000312934209D0B3F5807F40F0818046E048
:1037C000087AFFF79FFFE86038BD0B690A7A00337B
:1037D000C86818BF0123052A72D8DFE802F0031F6A
:1037E0002271712CC0B204EB800453B1236B5A1CBC
:1037F0002263002B6AD1364901234A69834013436F
:103800000AE0236B013B2363002B5FD13049012386
:103810004A69834022EA03034B6138BD72B6C0B2E5
:1038200035E01BB1BDE83840FFF782BE284A136877
:1038300023F4803309E023B1BDE83840C0B2FFF77C
:1038400049BE234A136823F08073136038BD0B7A96
:10385000012B23D014D3042B32D172B600F044FBD9
:103860001C4A136943F0040313611B4B1A6842F0AE
:1038700002021A601A6842F004021A6030BF38BDB2
:10388000FFF756FE0220FFF725FE72B60520FFF770
:1038900061FE204600F078F962B638BD72B60320AA
:1038A000FFF758FE204600F06FF962B6084B1A6821
:1038B00022F080721A601A6822F480321A6038BDD1
:1038C0006FF00100BDE8384002F035B838BD00BFE8
:1038D0000010024000ED00E00070004000284FEAB8
:1038E0000111AFBF00F16040054B00F00F00C9B2FD
:1038F000A5BFC9B200F56140195480F800137047A4
:1039000014ED00E0CB0B08BF0123B1FBF3F101295B
:1039100005D9B1F1011F28BF4FF4803100E0022129
:10392000044A013B52F8202001399BB289B2138529
:103930009185704700B900084FF08042138D006AEE
:103940009BB2013393FBF0F0928C92B202FB000029
:1039500070474FF08042138A23F001031B041B0CB5
:10396000138202F0B1B800002DE9F0410F4686B095
:10397000104D012401A9064602950394FFF70EFF9E
:10398000102FDDF810802A4606D80B4BBC40234090
:1039900013B10295032301E002920223304601A9EC
:1039A0000393FFF7FBFE0498804518BF400006B064
:1039B000BDE8F0810201028081C701002A4B30B5C9
:1039C00053F82140294B53F821500123AB4025687F
:1039D0002B432360264B950753F821301C88A4B253
:1039E00044F004041C8041BF1C88A4B244F00804C5
:1039F0001C8012F004051FBF9C89A4B244F001048E
:103A00009C81D40341BF9C89A4B244F480749C81FE
:103A1000D40741BF1C89A4B244F480441C8109B17D
:103A2000092903D1436A5C1C446206E0072901D0DE
:103A30000C2903D1836A5C1C84629BB995B10D4B40
:103A400053F82130012158B203F01F0301FA03F3A8
:103A50000949440941F82430C2F30721BDE8304048
:103A6000FFF73CBF30BD00BF44B9000888B900086B
:103A700000B90008D4B9000800E100E0194B53F880
:103A80002120138823F001031B041B0C138009B1B0
:103A9000092903D1436A013B436206E0072901D0AB
:103AA0000C2903D1836A013B83626BB90E4B012061
:103AB00053F8212053B202F01F0200FA02F25B0910
:103AC0000A48203340F82320094B53F82100094BC2
:103AD00053F82120012303FA02F2036823EA0203C8
:103AE0000360704700B90008D4B9000800E100E0A5
:103AF00044B9000888B9000838B50D461C464AB1DB
:103B0000012A0DD1FFF730FF0E49B0FBF1F1284635
:103B1000614307E0FFF728FFB0FBF4F1284601E01E
:103B200008461946FFF7EEFE074B53F82520002301
:103B300093840123938213889BB243F00103138083
:103B400038BD00BF40420F0000B900080B6A0222D6
:103B5000434308460121FFF7CFBF0000074B53F84E
:103B60002020138823F001031B041B0C1380138AED
:103B700023F001031B041B0C1382704700B90008DB
:103B80000120FFF7EBBF000010B501210446FFF74D
:103B9000EBFE024BB0FBF3F0206210BD40420F0081
:103BA0001FB50446002383624362104A23460A205D
:103BB0001C21FCF785FB20460121FFF7D5FE0C4BAD
:103BC00040F60652B0FBF3F0012120622046FFF7D9
:103BD000F5FE084B01A80193074B21460293074BC2
:103BE000039301F05EFF04B010BD00BF533900081D
:103BF00040420F004D3B0008813B00083939000866
:103C00000B46097AF0B5102902D96FF0060086E05C
:103C10005A68C2F30E02B2F5807F15D007D8082A81
:103C20000DD0092A79D1BDE8F040FFF727BF40F257
:103C3000011082420ED0B2F5817F10D06DE0DA68BB
:103C4000BDE8F040FFF7BABE1A7BBDE8F0401B6943
:103C5000FFF752BF0846BDE8F040FFF77FBFDC68C2
:103C60001869314BE2B253F821309500198C012AC2
:103C70008EB24FF00F0101FA05F126EA0101C4F3FB
:103C80000724198408DC198BD7008EB2FF21B940B4
:103C900026EA0101198308E0998B971E8EB2FF0076
:103CA000FF21B94026EA01019983002C3BD0611E17
:103CB000C9B203299BBF1D4C1D4E0021645C8CBF03
:103CC0000C46715C032A10D8DFE802F00205080BED
:103CD00080B298860BE080B2188708E080B298879F
:103CE0000CE080B2A3F8400008E0012A06DC188B43
:103CF000D20094400443A4B21C8306E0023A988B9D
:103D0000D20094400443A4B29C83188C41F0010279
:103D1000AA40024392B21A84F0BD6FF00100BDE8E0
:103D2000F04001F008BEF0BD00B90008CCB90008B1
:103D3000D0B90008044A93889B06FBD593889BB2B0
:103D400043F010039380704700280040054A938891
:103D500023F010031B041B0C938093889B06FCD557
:103D6000704700BF00280040034B9A889206FBD59D
:103D700000229A8001F09CBE0028004008B5244B28
:103D80002449DA6942F00062DA610A6842F480721A
:103D90000A601A6AEAB91A6A42F001021A62196ADA
:103DA0001B4A8907FBD5136A43F480731362136AB5
:103DB00043F400431362FFF7BDFF47F6FF71164B54
:103DC00000221A8199811A839A831A849A84FFF7B0
:103DD000BDFF114B9A8802F0080292B29A809A882D
:103DE0001007FCD599880C4A8906FBD513880A2050
:103DF0009BB243F0010313800321084A0023FCF720
:103E00005FFA074B08221A60D02283F8032308BD0B
:103E1000001002400070004000280040693D00088A
:103E200000E100E00A4B0B491A8B9B8B10B59BB24B
:103E300043EA0242B2FBF1F301FB13224FF47A7121
:103E40004A4303F5332303F66E134260036010BD4B
:103E5000002800408051010010B50446FFF76AFFBA
:103E600023680D4A9342C4BFA3F533230B4962680C
:103E7000C4BFA3F66E135943BDE810404FF47A73E4
:103E8000B2FBF3F3D8BF00210B44054A190C9BB2D7
:103E900011839383FFF75ABF6D390B0080510100E6
:103EA00000280040436813B5C3F30E03B3F5807FC9
:103EB00004460BD040F2011293420FD18368009365
:103EC000C36868460193FFF7C7FF0BE06846FFF73A
:103ED000A9FF009BA360019BE36003E06FF001007A
:103EE00001F029FD02B010BD034B9A889206FBD564
:103EF00000221A80704700BF0028004010B5044619
:103F000086B001A801F00AFCBDF80A30C3F30E0325
:103F1000013B062B22D8DFE803F009040E1321171A
:103F20001C00204601A9FFF739FC1BE0204601A92F
:103F3000FFF730FA16E0204601A9FFF761FE11E015
:103F400001A8FFF7AFFF0DE0204601A900F03CFA01
:103F500008E0204601A900F023FE03E06FF0010015
:103F600001F0E9FC01A801F0C0FBCAE700B59DB073
:103F700001F0D1FC0121024600232E20FCF7A0F91C
:103F80006846FFF7E1FB6846FFF70AFE6846FFF761
:103F9000FDF9FFF7F3FE684600F0B8FB684600F055
:103FA000F1FD6846FFF7AAFF164BD2B253F8223054
:103FB00030B503F01F0443F3C403012523F060432D
:103FC000A54023F00303104C03F1604354F8222072
:103FD00003F56143C3F8805094890144A4B244F0CE
:103FE00008049481884206D014882406FCD510F871
:103FF000014B9480F6E7918989B241F040019181AB
:104000001D6030BD40BA000868BA00082DE9F041D3
:10401000252886B00F460AD026280AD027280AD09D
:1040200034280AD0352814BF0524042406E00024CF
:1040300004E0012402E0022400E003243C4B53F896
:1040400024502E88AB89B6B21A062CD533062AD551
:1040500004F10E0357F82330188A20B3D9894A1C7B
:10406000194492B2897C8242DA81A98026D34FF02A
:104070000008A3F81080A3F80E8001F061FC2D4B1E
:10408000019001A802930394CDF8148001F014FB71
:10409000AB8923F080031B041B0CAB81AB899BB263
:1040A00043F0400309E0AB89580607D5710605D5F2
:1040B000AB8923F048031B041B0CAB81320726D0CD
:1040C000330706D504F10E0357F823304FF6F2728A
:1040D0001CE0AB88B0079BB2009306D504F10E0339
:1040E00057F823304FF6D36210E0F10706D504F1FC
:1040F0000E0357F823304FF6CD6207E0720706D55E
:104100004FF6CE6204F10E0357F823301A80B3063F
:104110000BD5AB889BB2059301F012FC064B0190C6
:1041200001A80293039401F0C7FA06B0BDE8F0813C
:1041300068BA0008050106000601060000220146D3
:1041400013461920FCF7BCB8002201461346212073
:10415000FCF7B6B838B50C460546002001F0EBFB7D
:104160002946224606231C20FCF7AAF801F0DEFBB4
:10417000B0FA80F0400938BD2DE9F34700EB810427
:10418000A56B80460F46924615B16FF0050007E01B
:10419000382001F036FC0646A06320B96FF0C80055
:1041A00001F0C9FBBBE04FF0FF331AF0020F0580AE
:1041B000436083604362836285810582C58121D02B
:1041C0000DF1080949F8045D494620222B461720C5
:1041D000FCF776F8019B7360A66B71684A1C01D1ED
:1041E000304647E018204A462B460195FCF768F810
:1041F000019BB360A36B9A685868013237D0394687
:10420000FFF7A8FF1AF0010642D000250DF10809BA
:1042100049F8045D49462B4617202022D4F838A0DF
:10422000FCF74EF8019BCAF82430D4F838A0DAF82D
:1042300024104B1C02D1DAF8080014E02B46182099
:104240004A460195FCF73CF8019BCAF82830D4F89F
:1042500038A0DAF82830013310D1DAF82400FFF75B
:1042600073FFA36B9868FFF769FFA36B5868FFF7AC
:104270006BFFA06B01F0E2FBA56350E02B461B2017
:10428000DAF824104A46FCF71BF8019BAAF82C30F8
:10429000244B254A0FB1052F07D152F82700996901
:1042A000012282400A439A6106E052F82700D96948
:1042B000012282400A43DA611C4B53F8272093897C
:1042C0009BB243F40053938126B193899BB243F090
:1042D00024039381164B0A2053F82740154A2146A0
:1042E0004346FBF7EDFFE1B24BB201F01F000122A4
:1042F000002B02FA00F210484FEA5314ACBF03F14E
:1043000060430E4B40F82420B9BF01F00F01D022CA
:1043100003F56143D022B4BF5A5483F8002302B09E
:10432000BDE8F0870010024054BA000868BA0008DF
:1043300040BA00080D40000800E100E014ED00E084
:104340002DE9F3410E4622B101F10E0350F823305E
:104350009A8100EB8605AC6BA38933B91A2061689A
:1043600001AAFBF7ADFF019BA381AF6BBC890CB326
:10437000102CD7F8088028BF1024002001F0DBFAA9
:104380001F20414607F112022346FBF799FF01F077
:10439000CDFA98B9AB6BA4B29A891C82141BD88150
:1043A0009C81084B53F8262093899BB243F08803E5
:1043B000938103E078683146FFF7CCFE02B0BDE898
:1043C000F08100BF68BA000870B50D7A88B0042D7E
:1043D00004460E4602D96FF0060085E14B68C3F330
:1043E0000E030B2B00F025810FD8082B2BD006D8FD
:1043F000012B00F04E81062B00F0F68072E1092BB4
:1044000026D00A2B00F01B816CE140F2031293428C
:1044100000F02F81B3F5827F07D2B3F5807F6DD096
:10442000B3F5817F00F019815CE140F205129342FF
:1044300000F02F81B3F5827F40F22481B3F5837FB2
:1044400000F02D814EE12946F268FFF795FE4DE11F
:1044500000EB8504A36B002B55D0A54B012253F82C
:104460002510A44E01F01F004BB282405B09A24808
:10447000203340F82320002213460B20FBF720FFB7
:10448000A26B536A01330ED056F82510906A8B89BF
:1044900023F024031B041B0C8B81FFF74FFEA36B3F
:1044A000586AFFF751FEA36B5A68013206D098682C
:1044B000FFF744FEA36B5868FFF746FE56F8252029
:1044C0008E48938923F400531B041B0C9381012312
:1044D0008B4A35B900689169834021EA03039361EF
:1044E00006E050F82500D169834021EA0303D36137
:1044F000A06B01F0A3FA0023A363F7E005F10E031C
:1045000050F8233013B96FF00300EDE0084601A91D
:1045100001F038FB774B53F82560B38923F400533F
:104520001B041B0CB3819DF80830082B08D19DF8A3
:1045300009304E2B04D0B3899BB243F4805304E07E
:10454000B38923F480531B041B0CB3819DF809200D
:10455000B3894E2A0DD09BB243F48063B3814F2AB6
:10456000B38903D19BB243F4007306E023F40073D4
:1045700001E023F480631B041B0CB3819DF80A3017
:10458000012B0CBF00234FF4005333820023B3826E
:104590005C4B04930DB9032300E0022303A92046DA
:1045A0000593FFF7FBF8069A192303FB02F1019A22
:1045B00064239200B1FBF2F2B2FBF3F103FB112290
:1045C000D20019323223B2FBF3F343EA01139BB258
:1045D0003381B3899BB243F40453B381B38A9BB252
:1045E00043F00103B38281E000EB8504A36B002B51
:1045F00089D059684A1C11D0002213462020FBF7AD
:104600005FFEA36B29465868FFF7A4FDA26B002349
:10461000938172B6A26B1382D38162B6A36B596A7F
:104620004B1C04D0002220201346FBF749FEA36B4D
:1046300025E00E3550F825302BB15B680BE00E35C8
:1046400050F8253033B96FF0030001F074F94FF0E2
:10465000FF3300E05B6AF36048E00E3550F8254018
:1046600024B96FF0030001F066F900E02488F460DB
:104670003CE00E3550F82530002B3FF444AF0022CB
:104680001A8033E0312020492A460023FBF718FE28
:104690002CE0204629463269FFF752FE26E00B69DE
:1046A00000EB8504A56B8DF80430AB8D33B91B206E
:1046B000696A03AAFBF704FE039BAB85A36B9A8D83
:1046C000A2B19D6A002001F036F901AA01231E2043
:1046D0002946FBF7F5FD01F029F9A26B938D013B0B
:1046E000938503E06FF0010001F025F908B070BD7B
:1046F00040BA000868BA000800E100E054BA0008B7
:104700000010024002010280A93F000800238363D9
:10471000C363036443648364704710F0800F00F048
:104720007F004FEA401000F1A04014BF00F5106078
:1047300000F530607047000000EB8100026D1368E7
:10474000D868536812891B1A9342A8BF13464A01BE
:1047500031B143F4002302F1A041C1F8103B06E05F
:1047600043F0C043064943F40023C1F8103302F17B
:10477000A043D3F8002B42F00442C3F8002B70474B
:104780000008005070B501F07F0500EB8500066E53
:1047900030687468C3681B1B34899C42A8BF1C46E0
:1047A0006B0144F4002103F1A042C2F8101902F594
:1047B00000621346D2F8002105F5A02542F004421C
:1047C000C3F8002101F029F87168E21C01350144A9
:1047D00022F00302280306F06BFB73681C4474602C
:1047E00070BD000070B54FF0A0435D699A6988B054
:1047F000D40601D5E80603D401F15C04002310E0DF
:104800009A6922F010029A6101F09AF8424B0390E3
:104810000493FF23059333E0827A3AB90133042BE2
:1048200032D054F8040F0028F6D1F7E75A0102F10C
:10483000A04202F6081602F50062D2F80821D2075B
:10484000ECD50122326002684468D268944243F099
:1048500080040FD30026867201EB83052B6E1B6844
:10486000DA680092C86C22462C4900F031FF2B6EAA
:104870001E604EE001F064F8294B03900493059408
:1048800003A800F019FF44E0A80414D54FF0A04499
:10489000A369CA6C43F40063A361FF23059301235A
:1048A0000693204B03A80493039200F005FF63696D
:1048B00043F400532CE02A0514D54FF0A044A3691B
:1048C0001B050FD5A369CA6C23F40063A361FF2302
:1048D000059303A803F107130493039200F0ECFE81
:1048E000636913E0002D14DA4FF0A044A369CA6C89
:1048F00043F40063A361FF2305930B4B03A80493C8
:10490000039200F0D9FE636943F0004343F400636F
:10491000636108B070BD00BF0A0107000480070092
:104920000B01070005010700070107008B6810B5A0
:1049300013F0800F03F07F0300EB830014BF046EBD
:10494000046D14B96FF0040003E0A37A2BB14FF0AB
:10495000FF3000F0F0FF002010BDCB680120236085
:1049600000F0E9FF012010BD01F07F0373B500EBFB
:10497000830311F0800614BF1C6E1C6D0D462CB90C
:104980006FF0040000F0D7FF204619E02368A3B1C0
:104990006FF06802C06C0B4900920B4A002E08BFF2
:1049A00011462A4600F078FE002323602846FFF7D0
:1049B000B4FE036843F0006303600023A372012088
:1049C00002B070BD0480070003800700F8B50646FA
:1049D0000D46FFF7C9FF48B32846FFF79EFE036860
:1049E00005F07F0423F40043036015F0800706EB15
:1049F000840314BF186E186D002303814FB1012387
:104A0000A340DB430A4AD1691940D161516B0B4085
:104A1000536301F013F837B104F1160306EB830476
:104A20000023A360F8BD06EB84042765F8BD00BF32
:104A30000008005070B5064686B00923494C039320
:104A40000423C16400250DEB030102940493059532
:104A5000FEF7A0FC0A230393082302940493304634
:104A6000012301A904F5803405930234FEF792FC7A
:104A700001A9304602940395FEF790FE049B3A4A42
:104A8000214693420AD002F1B77202F5585293427E
:104A900014D1364A536823F4800303E0334A536841
:104AA00043F480035360314A536943F480535361A4
:104AB0004FF480324FF0A0439A6304E06FF001009E
:104AC00000F039FF4BE04FF0A0431A69002AFADAF0
:104AD0001A6942F001021A614FF0A044256915F0ED
:104AE0000105F9D100BF00BF00BF00BF00BF00BF7C
:104AF000812325603046A360029101A90395FEF74A
:104B00004DFE049B1A4A0A2093420CBF4FF41053E7
:104B10004FF4A05343F0804343F05103E360154B3F
:104B200003221A60144A4321A261A26B42F40022BC
:104B3000A26301221A614FF400625D615A602D2365
:104B400063620E4A3346FBF7BBFB0D4B08229A60AB
:104B5000D02283F84323A36943F00403A36106B082
:104B600070BD00BF00010180006CDC02001002403B
:104B700000A24A040008005010280400E54700087D
:104B800000E100E04FF0FF33C364002303650366D8
:104B90004365436683658366C365C36670470000EB
:104BA0002DE9F0478E6888B0FF2E04460F4640F08E
:104BB000B8804B68C3F30E03B3F5807F55D018D887
:104BC000082B20D0092B40F0AC814FF0A042936914
:104BD0000B2023F004039361B74B0822C3F888200D
:104BE000002243211346FBF76BFB04F14C06002522
:104BF0000DE040F20112934203D0B3F5857F3FD020
:104C00008FE1012355E10968FFF714FF8DE156F8A4
:104C1000043F1BB120462946FFF7D8FE336923B174
:104C2000204645F08001FFF7D1FE0135042DEED17D
:104C3000A24A4FF0FF33E3645369A14E23F480533B
:104C4000536100250923204603A905930496069580
:104C50000795FEF79FFB0A23204603A904960593B8
:104C600006950795FEF796FB5FE1964BC8681968B5
:104C700001F4FE6119601A6842EA00121A6054E1F8
:104C80004FF0A0431E6A06F4F01306F00F0500EB88
:104C90008502B3F5402F176D11D1C36C05F5A02522
:104CA0000393894B01352D030493002305932B684F
:104CB00003A806936B68079300F0E8FC2AE0B3F5BD
:104CC000802F27D1386800F0A8FD3B68C6F30A168C
:104CD000DB6805F5A0210131F21C1844090322F01C
:104CE000030206F0E5F83B687968DA6832448A42E4
:104CF000DA6001D28E4209D20092E06C73492A46F2
:104D000000F0E6FC0023BB723B6003E0204629462E
:104D1000FFF712FD4FF0A042936943F01003936137
:104D200003E106F07F05032D02D96FF00600FAE0DB
:104D30004B68C3F30E03092B00F094800DD8042BAD
:104D400000F0DF8003D8032B00F0C680E9E0062BDB
:104D500000F08C80082B16D0E3E040F2031293425F
:104D600000F09480B3F5827F04D2B3F5817F00F028
:104D70008180D6E000F0978040F20B12934240F021
:104D8000D0803146CAE000EB850316F0800A14BFDC
:104D90001B6E1B6DD1F80C90D1F8108013B16FF021
:104DA0000500C0E00C2000F02CFE002800F0BD80C3
:104DB00004EB8503BAF1000F01D0186600E0186516
:104DC00009F1FF33DBB20022022B02600281827202
:104DD00096BF3F4A3F4F52F82370BAF1000F25D0DB
:104DE0004FF0A0435B6A5C349BB20022AA4206DA11
:104DF00054F8041F0132098903EB9103F6E79B0085
:104E00004FEA980243EA02432DB1AA0002F1A04200
:104E1000C2F8003102E04FF0A04293622949012319
:104E2000CA69AB40134347EA8557CB618DB9B8F1E6
:104E3000100F08D0B8F1200F08D0B8F1080F0AD130
:104E400047F0030707E047F0020704E047F00107D7
:104E500001E047EA0807A0F808803046FFF75DFC4C
:104E6000076062E03146FFF7B1FD5EE03146FFF7D3
:104E70007BFD5AE03146FFF777FD002855D03046DC
:104E8000FFF74BFC036843F400130AE03146FFF7D9
:104E90006BFD002849D03046FFF73FFC036823F440
:104EA0000013036041E03046FFF737FC0368C3F3AB
:104EB0004053FB6039E000BF00E100E00010024019
:104EC000010101800008005008010700038007006D
:104ED0007CBA00080080000800EB85031E6DFFF718
:104EE00025FD10B3336800221A735A739A73DA736C
:104EF0003B69204673600123B3722946FFF71CFC0F
:104F000013E000EB85031E6EFFF710FD68B120462D
:104F1000002373600123B37245F08001FFF732FC78
:104F200003E06FF0010000F006FD08B0BDE8F08777
:104F300041F21403334A73B5D5580C466A0630D58E
:104F4000022694F864309A1C54F822202AB941F2BF
:104F500014032C4A4021D15023E004EB03131B6BB4
:104F6000002BF4DBC3F30D43D36094F8643094F862
:104F70006320023354F82330606DD96800912249D0
:104F800000F0A6FB94F8643000219A1C013303F072
:104F90000103012E44F8221084F86430D7D0012692
:104FA000CFE7EB0726D5022594F8652054F8223088
:104FB0002BB941F21403134A0121D1501AE004EB3A
:104FC00002121269002AF4DBD96894F86320009178
:104FD000606D0E4900F07CFB94F86530002244F8C7
:104FE0002320013303F00103012D84F86530E0D064
:104FF0000125D9E741F21403024A4FF48031D15020
:1050000002B070BD0080024003800C0004800C00E0
:10501000F7B541F21802044625498B5843F4801332
:105020008B50244B1D6815F48015FAD1264627466F
:1050300072B600223A63B368B26062B643B16FF0F1
:105040006801009194F86320606D1B4900F024FB17
:1050500072B600223A613368326062B643B16FF0D3
:105060006801009194F86320606D144900F014FB0E
:10507000012D07F1100706F1040601D00125D7E73D
:1050800041F24C030A4AD15804F130035B1A18BFAD
:10509000012384F8643041F24803D25804F110032C
:1050A0009B1A18BF012384F8653003B0F0BD00BF20
:1050B000008002401890024003800C0004800C0025
:1050C00037B5054690F8630002F077FA95F850205E
:1050D000034682424ED0821FD2B2012A94BF0022E0
:1050E000012285F85C20002285F850000092686D4E
:1050F000244900F0D1FA95F85C30234C5BB395F865
:105100005030032B1BD8DFE803F002060E1623688D
:1051100023F4904312E0236823F480432360236840
:1051200043F400630AE0236823F4006323602368E8
:1051300043F4804302E0236843F49043236041F248
:105140001802236843F00C032360A35843F4005370
:1051500043F002030DE02846FFF75AFF41F2180220
:10516000236823F00C032360A35823F4005323F097
:105170000203A350A86D4FF47A7103B0BDE830402C
:1051800000F0C0BC02010C000080024010B50446D3
:10519000124B4FF00052C3F88420002213463D21E9
:1051A0000B20FBF78DF82046FFF732FF94F86300E1
:1051B00002F0F5F90A4AA06D536923F4E033536114
:1051C00000F0C0FC4FF0FF33A3656365002384F853
:1051D0005C30062384F8503010BD00BF00E100E0D1
:1051E0000010024010B50F4B1C69E407FBD41C698A
:1051F000C00224F47F4424F0C0041C611C6980B206
:1052000001F01F0144F0020440EA811121431961B9
:105210005A611A6942F001021A61024B1B69DB07ED
:10522000FBD410BD0080024010B50F4B1A69D407A3
:10523000FBD41A69C00222F47F4222F0C2021A6132
:105240001C6982B201F01F0042EA801020431861FD
:105250001A6942F001021A61034B1A69D207FBD4A2
:10526000586980B210BD00BF008002404FF0FF338C
:105270004365062380F85030002380F85C3080F8C6
:10528000613080F8623080F85D3080F85E3080F800
:105290005F3080F86030036083604360C3607047B4
:1052A000F0B54B6885B0C3F30E03062B04460D46DC
:1052B00000F0BA8009D8032B00F0B980042B00F06D
:1052C000CB80022B40F0E380D7E0092B00F0A980CF
:1052D00002D8082B10D0DAE0B3F5807F00F0D08040
:1052E00040F20112934240F0D280D0F85D30CB60A2
:1052F000B0F861300B6108E18B680F7B0E6880F8B5
:1053000063300C21002000F0EBFBA065013000F0C1
:10531000FC807F4A6665536943F4E03353617D4BFB
:105320001A6842F001021A601D687B4E15F00105F3
:10533000FAD104F12001E16141F2100104F14002CF
:10534000E263764A4FF480436363636422612262BE
:1053500004F1300304F11002E364E2622563256482
:1053600084F8655084F86450725041F20C02B350D6
:105370004FF40043336094F8613094F8622043F0B6
:10538000004343EA0223336494F85F3094F86020CA
:105390001B0443EA026394F85D202F20134394F822
:1053A0005E20012143EA0223736404AA4FF0FF3315
:1053B000756042F8043D2B46FAF782FF2B460095B4
:1053C00003985749012200F001FA564B984201D840
:1053D000082303E0544B984202D80C23336100E0C9
:1053E00035610A203D21514A2346FAF769FF504BA7
:1053F0004FF000525A60D02283F83D2341F21C0343
:105400004C49454AD15094F86300394602F0A0F85F
:1054100028B96FF0020000F08EFA204601E0204625
:105420002BE0FFF7B3FE70E0FFF7F2FD6DE090F8C0
:105430005C30CF6813B96FF0030064E090F86460EB
:10544000B31C50F8233043B3013606F00106B31CF9
:1054500050F82330F3B920E090F85C30CE68002B90
:10546000E9D090F8655050F8253093B3013505F038
:10547000010550F825306BB92BE0FFF721FE44E021
:10548000CA680B69C0F85D20A0F861303DE06FF09C
:10549000010038E04FF0FF3035E0384600F0BDF94C
:1054A0002B6904EB0612C3F30B01536B906323F4D7
:1054B0007F6323F00F030B43536372B64FF0004337
:1054C000023644F82670136362B6002141F20803E5
:1054D00016E0304600F0A1F904EB05139861F2687C
:1054E000C2F30B025A61144A1A6172B644F825607D
:1054F0001A6942F000421A6162B641F204030021C7
:10550000054A0120D15000F016FA05B0F0BD00BFE9
:105510000010024000900240008002400000104055
:1055200002010280C00E160200879303314F00086B
:1055300000E100E0410001000000107000B5A1B0E2
:1055400006A8FFF793FE00F0E6F9022102460023C9
:105550002E20FAF7B5FE01A800F0E0F806A801A990
:10556000FFF79EFE01A800F0C0F8F4E74FF00053EB
:10557000F0B51C68D4F81CE0236A73451BD01425D1
:105580005D4304F1280677197559854201D0851CC1
:1055900009D17D688D4201D04E1C04D1BD68954271
:1055A0000CD0951C0AD0666A5D1CB5424FF0000312
:1055B00038BF2B46E1E74FF0FF30F0BD1846F0BD95
:1055C0002DE9F04104460E4686B04FF00058D8F859
:1055D000001014270B6A9C422FD007FB04F52831DA
:1055E00029443A4601A805F063FCD8F80030002CA5
:1055F00003F12801D7BF5B6AA5F114037B43143B79
:1056000068181422194405F053FC4FF000531A682F
:10561000002CDEBF556A14235D4302F12800143DBF
:10562000284401A9142205F043FC002CDEBF4FF0F2
:1056300000531B685C6A013CC7E707FB04113A464C
:105640003046283105F034FCD8F800203046136A83
:10565000516A01338B4228BF0023136206B0BDE8B4
:10566000F081F0B507460E46154687B0002438464F
:1056700031462A46FFF77AFF002804DB01A9FFF72D
:105680009FFF0134F3E7204607B0F0BD002201463A
:1056900013461420FAF714BE7FB50493089B0392B7
:1056A0000022019002910593142001A91346FAF7F4
:1056B00007FE07B05DF804FB10B54FF000535C68BF
:1056C00000220146A446BDE810401420134660475E
:1056D0007FB50493089B019001A802910392059362
:1056E000FFF7EAFF07B05DF804FB436810B5002B35
:1056F000044612DA23F00043436000F017F920B1AA
:1057000001280AD000F012F9206100222146BDE8EC
:10571000104014201346FAF7D3BD10BD10B504464F
:10572000002000F008F94FF000531B68DA691B6A8B
:105730009A4207D16FF0010115204FF0FF320B465E
:10574000FAF7BEFD4FF000531B682146186AFFF7B9
:1057500037FF6368B3F1004F03D12046FFF7C5FF61
:10576000DEE710BD10B50446002221461346162080
:10577000FAF7A6FD94E80300A26821F00041FFF7C4
:10578000F5FE2146BDE81040FFF71ABF7FB5049330
:10579000089B019001A8029103920593FFF7E2FF95
:1057A00007B05DF804FB7FB50493089B019001A846
:1057B000029103920593FFF7D5FF0598002801DABF
:1057C00000F0B9F8049807B05DF804FB7FB50493C6
:1057D000089B019001A8059302910392FFF7C2FF75
:1057E000049B013302D1059800F0A5F8049807B096
:1057F0005DF804FB7FB50493089B019001A802911A
:1058000003920593FFF7AEFF0598002801DA00F038
:1058100092F8059807B05DF804FB83681844704758
:10582000436802699B1A1844704703698B4221BF81
:10583000591A0161411A40682CBF40180020704776
:10584000826843689B1AC26800699B1A181A7047DD
:1058500038B504460D46FFF7F3FFA84221BF206983
:1058600029186068216126BF611A4018002038BDE0
:10587000002370B5037343738373C37315460446E3
:105880000E46FFF7DDFF854228BF0546A06831467A
:1058900020442A4605F00CFBE560284670BD002335
:1058A0001422037443748374C37403734373837344
:1058B000C373027243728372C372704707B50023C9
:1058C000024601A92C20FAF7FBFC019868B10023DD
:1058D0001422037443748374C37403734373837314
:1058E000C373027243728372C37203B05DF804FB28
:1058F000014620B100222D201346FAF7E1BC704783
:1059000007B501460020034601AAFAF7D9FC019821
:1059100003B05DF804FB07B50022012001A913467E
:10592000FAF7CEFC019803B05DF804FB4FF000538A
:105930001B68186870474FF000531B681860704769
:1059400013B500224FF000535C68012001A91346F3
:10595000A047019802B010BD002201461346062060
:10596000FAF7AEBC08B5FFF7D6FFBDE80840FFF771
:10597000F3BF0022014613460720FAF7A1BC07B582
:10598000694600F076F86846FFF7F3FF03B05DF86C
:1059900004FB002108200A460B46FAF791BC0021BF
:1059A00009200A460B46FAF78BBC10B54FF000549D
:1059B000A46864682468A446BDE8104060470FB43A
:1059C00007B504A951F8040B4FF0005301919B68EF
:1059D0005B685B68984703B05DF804EB04B0704700
:1059E0000EB403B503AA52F8041B4FF00053019202
:1059F0009B685B689B68984702B05DF804EB03B056
:105A0000704710B501466A464FF000539868046825
:105A10001868E3680430BDE81040184730B50A46FE
:105A200005466B464FF00051886804680868646951
:105A30002946A446BDE83040043060474FF000538B
:105A40009A680146126818689369043018474FF045
:105A500000539B689B681B6818474FF000539B6876
:105A60009B685B6818474FF000539B689B689B6876
:105A700018474FF000539B689B681B6918474FF00D
:105A800000539B689B681B6A18474FF000539B6844
:105A90009B685B6A18470022014613460C20FAF700
:105AA0000FBC03460A460F2019460023FAF708BC2C
:105AB00010B54FF000535C680021A446BDE81040CB
:105AC0000D200A460B46604710B54FF000535C6846
:105AD0000021A446BDE810400E200A460B46604750
